:0400000085EF00F098
:100008001141114111411141114111411141114158
:100018001141114111411141114111411141114148
:100028001141114111411141114111411141114138
:100038001141114111411141114111411141114128
:100048001141114111411141114111411141114118
:100058001141114111411141114111411141114108
:1000680011411141114111411141114111411141F8
:10007800114111411141114142009C40114111416E
:1000880011411141114111411141114111411141D8
:10009800D840EE4011411141420011411141114136
:1000A80011411141114111411141114111411141B8
:1000B80011411141114111411141114111411141A8
:1000C8001141114111411141114111411141114198
:1000D8001141114111411141114111411141114188
:1000E8004200114111411141114111411141114188
:1000F8001141114111411141114111411141114168
:06010800FF0004EF82F08D
:107FFE0000C34000C3CE260000C39C2D000000002D
:10800E0000C38E2D0000000000C3972D000000005D
:10801E0000C900000000000000C9000000000000C0
:10802E0000C385260000000000C3122700000000D8
:10803E0000C34300F33100FF2100802200FF22071E
:10804E00FF2205FF224EFF2250FF3E493209FFAFAD
:10805E00210CFF061A772310FC21C0FE2220FF21DF
:10806E0000802222FF06083E2E2163FF772310FC9C
:10807E00AF770614213AFFAF772310FC3E49323416
:10808E00FF3E4E3233FF2E00652235FFAF3239FFF1
:10809E00210080223CFF2240FF2244FF2248FF2283
:1080AE004CFF7E323BFF323FFF3243FF3247FF32FF
:1080BE004BFF21E82ACD4925AF326CFF21342BCD61
:1080CE004925CDA925CD3326B728EDFE41CA5F1926
:1080DE00FE44CAC106FE47CAA913FE53CA6B14FE5C
:1080EE004CCAE114FE50CAE315FE52CABB16FE235B
:1080FE00CA2001FE42CA9702FE54CA4103FE3F281F
:10810E000821512BCD492518AF210529CD49251818
:10811E00A723CD3326B728E9FE4C2825CD320238C9
:10812E00E079FE11D21001B7CA10013D1716005F9B
:10813E00216E01195E2356EB5E23567AB328C2EBED
:10814E00E9216E015E235623D5DDE1DD7E00DDB62D
:10815E000128091313EBCD4925EB18E8C3C7008E90
:10816E0001A201B801DA01FE01120228022802283A
:10817E0002280228022802280228022802280200C9
:10818E002F312E204742415349432053746172745C
:10819E000D0A00032F322E204742415349432052ED
:1081AE006573746172740D0A00004C332E20506199
:1081BE006C6F20416C746F2054696E79204241536C
:1081CE0049432053746172740D0A00034C342E20FF
:1081DE0050616C6F20416C746F2054696E7920422F
:1081EE004153494320526573746172740D0A000045
:1081FE0054352E2047414D453830205374617274EA
:10820E000D0A000354362E2047414D45383020527A
:10821E006573746172740D0A000000D5E5CD3202EB
:10822E00E1D1C9AF474FCD3326B7C8CD5402D8F5EB
:10823E0008F1CD6302D808E516005F606919444D58
:10824E00E1D82318E1B7280AFE30D8FE3A3003D61B
:10825E0030C937C9E5C5CB21CB10CB21CB10E109F5
:10826E00E5C1CB21CB10E1C93A42FFB728082A4419
:10827E00FF3E31CD27033A46FFB7CAC7002A48FF53
:10828E003E32CD2703C3C70023CD3326B728D901ED
:10829E0042FFFE31280E0146FFFE322807FE43281C
:1082AE0033C310010823CD3326B7284FFE2CC2103E
:1082BE000123CD3326C5CD4326E1DA1001CDD502FB
:1082CE00DA1001C3C7003E0177231A772373237296
:1082DE00B7C937C923CD3326B728140142FFFE3163
:1082EE0028080146FFFE32C21001AF02C3C700AF1D
:1082FE000142FF020146FF02C3C7000AB7CAC70008
:10830E00082A44FFFE3128032A48FFCD2703C3C79E
:10831E000042502800293A00E5F5212003CD4925D9
:10832E00F1CD9C2D212403CD4925E1CD5225CD92B1
:10833E0025C9E52E0026002235FF2A22FF2237FF0F
:10834E00AF3239FFE123CD3326CD4326D20704CDFC
:10835E0033267EB7CA3004FE2CCA1804FE50284EAF
:10836E00FE4DC2100123CD332621AF03FE49281046
:10837E0021B503FE532809B7C210013A34FF18E99C
:10838E003234FFE521A003CD4925E1CD4925C3C7F0
:10839E0000544D206D6F64653A3C43414C4C2000B7
:1083AE00494E3E0D0A00534B49503E0D0A0023CD57
:1083BE003326B720053A33FF1809FE4FC2100123AA
:1083CE00CD332621FC03FE4E2808210104FE46C2B1
:1083DE0010013233FFE521F203CD4925E1CD4925C8
:1083EE00C3C7005450206D6F64653A20004F4E0D88
:1083FE000A004F46460D0A00ED5337FFCD3326B720
:10840E00281FFE2C2803C3100123CD3326B7CA1014
:10841E0001FE2D2811CD3202DA1001ED4335FF1881
:10842E001B01010018F523CD3326FE31C2100123A6
:10843E00CD3326B7C210013E013239FF2A37FF7EF7
:10844E0001080021DF05EDB120130E01CDB105DAD3
:10845E0070050E02CD9105DA7005C36D050105009C
:10846E0021E705EDB120190E012A37FFCD8405CD88
:10847E00BE05DA70050E02CD9605DA7005C36D05E0
:10848E0001080021EC05EDB120040E0118130108BE
:10849E000021F405EDB1201A0E013A34FFFE5328E7
:1084AE0008CDA505DA70050E02CD9B05DA7005C361
:1084BE006D05FEC9200B0E01CDB105DA7005C36D39
:1084CE000501080021FC05EDB1200B0E01CD910533
:1084DE00DA7005C36D05FEED2013237EFE452804DC
:1084EE00FE4D20090E01CDB105387618712A37FFE1
:1084FE007EFEE9200C2A12FF0E01CDBE0538621851
:10850E005DFEDD200B237EFEE920052A1CFF18E808
:10851E002A37FF7EFEFD200B237EFEE920052A1E54
:10852E00FF18D52A37FF7EFE18200C0E01CD8405CC
:10853E00CDBE05382C1827FEC320090E01CDA5058A
:10854E00381F181AFECDC204060E013A34FFFE5330
:10855E002807CDA505380A1805CD9B053803C3E7B6
:10856E0013217A05CD4925C3C700FF41647220450A
:10857E0052520D0A00235E2316FFCB7B20021600FB
:10858E0019C92A37FF180A2A37FF18042A37FF237A
:10859E002323CDBE05C92A37FF235E2356EBCDBE5E
:1085AE0005C9ED5B20FF1A6F131A67CDBE05C97999
:1085BE00FE01200D113AFF12223CFF7E323BFF18C6
:1085CE000B113EFF122240FF7E323FFFAFC937C96B
:1085DE00C0C8D0D8E0E8F0F81020283038C2CAD28F
:1085EE00DAE2EAF2FAC4CCD4DCE4ECF4FCC7CFD77E
:1085FE00DFE7EFF7FF011200219D06EDB1CA780605
:10860E0001080021AF06EDB1CA83062A37FFFECB63
:10861E002857FEDD280AFEED2828FEFD2802183E0A
:10862E00237EFECB2859FE212855FE222851FE2AF4
:10863E00284DFE362849010A0021B706EDB128293A
:10864E001832237EFE432837FE4B2833FE53282F45
:10865E00FE5B282BFE732827FE7B2823180B0E01AA
:10866E00CD9105DA7005C36D050E01CD9605DA7054
:10867E0005C36D050E01CD9B05DA7005C36D050EA4
:10868E00012A37FF23CD9E05DA7005C36D05060E50
:10869E00161E262E363EC6CEDED6E6EEF6FEDBD312
:1086AE000111213122322A3A09192939232BE5E108
:1086BE00E3F9237EFE49CACA07CD3326CD432638B9
:1086CE0006ED5300FF1810E52A00FF018000092275
:1086DE0002FFE17EB7282BCD33267EFE2C280DB768
:1086EE00C21001218000192202FF181623CD332655
:1086FE00CD4326DA1001CD3326B7C2100113ED5348
:10870E0002FFCD1707C3C7002A00FF3EF0A56FAFCB
:10871E003204FFE5CD4407E101100009CD972D206D
:10872E000E3A04FFFE0238EB2A02FF2200FFC92296
:10873E0000FFC38E2DCD5225E521592BCD4925E1C4
:10874E00DD2177FF0610CD7E0710FB215C2BCD4976
:10875E00252177FF06107E23FE203809FE7F300587
:10876E00CD9C2D18053E2ECD9C2D10EAC392253E94
:10877E0020CD9C2D3A04FFB720203A00FFBD2006E5
:10878E003A01FFBC280F3E20CD9C2DCD9C2DDD77D0
:10879E000023DD23C93E013204FF3A04FFFE01200F
:1087AE00E57EDD7700CD572523DD233A02FFBDC0E0
:1087BE003A03FFBCC03E023204FFC923CD3326CD9F
:1087CE0043263014CD33267EB7201326002E0A7D85
:1087DE00326FFF226DFF1833ED5370FF18E6FE2C3B
:1087EE00C2100123CD3326FE5320123E01326FFFFD
:1087FE0023CD3202DA1001ED436DFF180ECD432664
:10880E00DA1001ED536DFFAF326FFFCD972D2806B5
:10881E00CD8E2DC3C700CDA908CD6E082177FFCD13
:10882E0049253A6FFFB7200E2A6DFFED4B70FFED15
:10883E004230D8C3C7002A6DFF2B226DFF7CB520B6
:10884E00CAC3C7002270FFD5CDA908CD6E08D121AD
:10885E0077FF012A00EDB0ED5B70FF3A76FFC9217C
:10886E0077FFED5B70FFCD4910CDD910CDD9100635
:10887E00043A76FF4F1A13D55FCD5110CDD910D1D2
:10888E0005280F0D20EFCDD910CDD910CDD910055B
:10889E0020F4CDD910ED5370FFC93E013276FF1191
:1088AE00A811CD6D102192FFCD99102A70FF7E0177
:1088BE000D0021EC10EDB1201221FB12CDEF0FC3F4
:1088CE006D10E6380F0F0F4F0600C9FE0A2819FE6D
:1088DE001A2823FE022824FE122829FEF9202A1126
:1088EE00842DCDC010C3931011432DD5CDBD10D105
:1088FE00CDA710C39910114A2D18F011432DCDAFED
:10890E0010C38810114A2D18F5FE40DAB009FE800A
:10891E003028FE76200611AB11C36D10CDD108CDD7
:10892E00EC0F2192FFCDC010ED5B70FF1AE6074FE2
:10893E000600E5CDEC0FE1C39610FE883008CD6A37
:10894E0010CDBD1018E2FE90300B11B411CD6D108C
:10895E00CDBD1018D3FE98300811B811CD6D10187A
:10896E00C7FEA0300B11BC11CD6D10CDBD1018B8C7
:10897E00FEA8300811C011CD6D1018ACFEB0300835
:10898E0011C411CD6D1018A0FEB8300811C811CD4C
:10899E006D101894FEC0D22C0A11CB11CD6D10188B
:1089AE008701080021F910EDB1200EF511CE11CD81
:1089BE006D10F1CDD108C34109010800210111ED5F
:1089CE00B1200AF511D211CD6D10F118E601040097
:1089DE00210911EDB1200F11CE11CD6D1021EB1229
:1089EE00CDE30FC39910010400210D11EDB1200F3D
:1089FE0011D211CD6D1021EB12CDE30FC3991001E1
:108A0E000400211111EDB12046CD6A1011512DCD6A
:108A1E00C010E521EB12CDEF0FE1C396100104005B
:108A2E00211511EDB1200F11D611CD6D1021F312BC
:108A3E00CDE30FC39910010400211911EDB1200FE0
:108A4E0011DA11CD6D1021F312CDE30FC39910FE83
:108A5E00082817FEE32821FEEB2025114A2DCDC054
:108A6E0010CD931011DF11C36D10118911CDC010EF
:108A7E00118C11CD961018EC11842DCDAF1018E17C
:108A8E00FEE9200F119411CD6D1011512DCDA410B2
:108A9E00C3991001080021DF05EDB1200F119011CF
:108AAE00CD6D1021D312CDE30FC399100108002113
:108ABE00FC05EDB1201711A411CD6D10792FCB2728
:108ACE00CB27CB27E6385F2192FFC3F80FF53E0286
:108ADE003276FFF1010800219D06EDB12016CDD1B1
:108AEE0008CDEC0FCDC010ED5B70FF131A5FCD3BC0
:108AFE0010C39910010A0021A506EDB1C2570BC58E
:108B0E00211513CDEF0FCD6D10C179FE012814B7CD
:108B1E00281AFE073803CDBD10ED5B70FF131A5FE8
:108B2E00C3F80FCDBD10CD470BC399102192FFCDC9
:108B3E00470BCDE510C38810CDD010ED5B70FF1341
:108B4E001A5FCD3B10C3D410FE102005119A1118D8
:108B5E0007FE18200C119711CD6D102192FFC31C2A
:108B6E001001040021E805EDB12012119711CD6D11
:108B7E001021E312CDE30FCDE510C31C10F53E031B
:108B8E003276FFF101040021AF06EDB1C2AD0B212B
:108B9E002913CDEF0FCDC010CDD50BC3FE0FFE2286
:108BAE002812FE322814FE2A2826FE3AC2EE0BCDDB
:108BBE00BD101822CDCF0BC39310CDCF0BC3881091
:108BCE00CDD50BC30410E52A70FF235E2356E1C9F1
:108BDE0011512DCDC010CDD50BCD1310C39910FE54
:108BEE00C32008119411CD6D1018ADFECD200811C3
:108BFE009F11CD6D1018A101080021EC05EDB120DB
:108C0E0011119411CD6D1021D312CDE30FCDE510BE
:108C1E00188601080021F405EDB12005119F1118E9
:108C2E00E32A70FF23F53E023276FFF1FECBC2F649
:108C3E000C7E2192FFFE08DA7F0CFE10DA880CFE05
:108C4E0018DA910CFE20DA9A0CFE28DAA30CFE300C
:108C5E00DAAC0CFE38DAD00CFE40DAB50CFE80DA57
:108C6E00BE0CFEC0DAC70CCDD60C119E12C36D1011
:108C7E00CDDB0C111912C36D10CDDB0C111D12C3FF
:108C8E006D10CDDB0C112112C36D10CDDB0C112438
:108C9E0012C36D10CDDB0C112712C36D10CDDB0C82
:108CAE00112B12C36D10CDDB0C112F12C36D10CD15
:108CBE00D60C113312C36D10CDD60C113712C36DF5
:108CCE001011A212C36D10F5CDE80CF1E6074F0698
:108CDE0000E5CDEC0FE1C39610E6380F0F0F473EBF
:108CEE0030B07723C3E510FEDDC29C0E117E2DED54
:108CFE005372FF114513ED5374FF7EFEE3CA500D00
:108D0E00FEE9CA3E0DFEF9CA5F0D01040021B70649
:108D1E00EDB1CA680D01040021BB06EDB1C27D0D97
:108D2E00213D13CDEF0FCD6D102192FFC38D10EDB0
:108D3E005B72FFD5119411CD6D10D1CDA410C399D6
:108D4E001011DF11CD6D1011842DCDAF10C38D100C
:108D5E0011842DCDC010C38D10CD6A10ED5B72FF46
:108D6E00CDC010E52A74FFCDEF0FE1C39610F53E8E
:108D7E00033276FFF1010E00211D11EDB1CABC0DBB
:108D8E00FE86CAE70DFE8ECAF20DFE9ECAF70D01D3
:108D9E000700212B11EDB1C2FC0D215513CDEF0FA4
:108DAE00CD6D10ED5B72FF2192FFC3B30F79FE07FD
:108DBE00D2D40DED5B72FFCDAA0FE5216313CDEF7B
:108DCE000FE1C39610D6074F216313CDEF0FCDC021
:108DDE0010ED5B72FFC3B30F11B011CD6D10CDBD91
:108DEE001018EE11B41118F311BC1118EEF53E0463
:108DFE003276FFF1FE21CA220EFE22CA2F0EFE2A65
:108E0E00CA380EFE36C2480EED5B72FFCDAA0F5A5F
:108E1E00C3F80FED5B72FFCDC010CDD80FC3FE0FA0
:108E2E00CDD80FCD0410C38D10ED5B72FFCDC010E9
:108E3E00CDD80FCD1310C39910FECBC2D00CCDD808
:108E4E000F7A010700213211EDB1C2680E219B137A
:108E5E00CDEF0FCD6D10C3B20D011800213911EDFC
:108E6E00B1C2D00CFE80DA8C0EFEC0DA940E119ECA
:108E7E0012CD6D102192FFCDE80CC3E00D1133120F
:108E8E00CD6D1018EF113712CD6D1018E7FEEDC233
:108E9E00990F7E013800215111EDB1C2D00C79FE2F
:108EAE0006DA7A0FFE1BDA6C0FFE1EDA590FCA397C
:108EBE000FFE1FCA420FFE20CA4B0FFE21CA540FCF
:108ECE00FE26DA280FFE2ADA120FFE31DAF70E111D
:108EDE001612CD6D1079D6314F216313CDEF0FCD14
:108EEE00C01011A612C39610111212CD6D1011A63C
:108EFE0012CDC01079D62A4FE5216313CDEF0FE1C5
:108F0E00C3961011BC11CD6D1011512DCDC010791D
:108F1E00D6264FE521EB1218E311B411CD6D1011C9
:108F2E00512DCDC01079D62218E8CDBD10118C2D43
:108F3E00C39610CDBD10118A2DC39610118C2DCD58
:108F4E00C010C38810118A2D18F5113F12CD6D1067
:108F5E003E1D91C6302192FF7723C39910D6064F3E
:108F6E000600217113CDEF0FC36D103E043276FF54
:108F7E00C579213113CDEF0FC179FE03DA3C0ED541
:108F8E00CDD80FCD0410D1C3961011812DED537293
:108F9E00FF114D13ED5374FFC3090D2192FFCDB98F
:108FAE000FC3E510CDB90FC39910CDD010CDC81099
:108FBE00CDD80F7BFE80380CED445FCDE110CD3B5C
:108FCE0010C3D410CDDD1018F5E52A70FF23235EF3
:108FDE002356E1C9CDEF0F2192FFC3C81021C31252
:108FEE00CB21CB10095E2356C9CD3B10C39910CDB2
:108FFE002A10C399102192FFCDD010CD2A10CDD4B6
:10900E0010C3E510CDD010CD2A10C3D410E52A70B0
:10901E00FFCD8405EBE1CD2A10186F7AFEA038043F
:10902E003E307723CD49103E48C3D6107BFEA03884
:10903E00043E307723CD511018ED7ACD5A107ACDEB
:10904E005E107BCD5A107BCD5E10C90F0F0F0FE651
:10905E000FF630FE3A3870C607186C11B011F5C510
:10906E000608218AFF1AB728067723130518F63E3D
:10907E002077230520FBC1F1C911412D1809ED5BA5
:10908E0072FF180311512DCDC8103E0D77233E0AE5
:10909E007723AF77C92192FFCDD010CDC8101825F8
:1090AE002192FFCDD010CDC810CDD410182811416B
:1090BE002D2192FFCDC810181D1A77B7C82313188B
:1090CE00F83E2818023E297723C93E2018F93E2B78
:1090DE0018F53E2D18F13E2CCDD61018ED00070FC9
:1090EE00171F272F373FC9D9F3FB040C141C242C50
:1090FE00343C050D151D252D353D031323330B1B58
:10910E002B3B09192939C1D1E1F1C5D5E5F5464EFB
:10911E00565E666E7E7071727374757796A6AEB675
:10912E00BE3435060E161E262E3E464E565E666E14
:10913E00767E868E969EA6AEB6BEC6CED6DEE6EE01
:10914E00F6FE404850586068784149515961697936
:10915E00425262724A5A6A7A474F575F46565E4487
:10916E00454D676FA0A1A2A3A8A9AAABB0B1B2B397
:10917E00B8B9BABB4353734B5B7B4146004146279C
:10918E0000524554004A50004A5200444A4E5A007A
:10919E0043414C4C00525354004C440048414C54F3
:1091AE00004144440041444300535542005342435E
:1091BE0000414E4400584F52004F52004350004958
:1091CE004E430044454300504F5000505553480005
:1091DE00455800455858004E4F5000524C434100E0
:1091EE005252434100524C410052524100444141BF
:1091FE000043504C0053434600434346004449004D
:10920E004549004F555400494E00524C43005252AE
:10921E004300524C00525200534C410053524100F5
:10922E0053524C0042495400524553004E4547009C
:10923E00494D0052524400524C44004C44490043A4
:10924E00504900494E49004F555449004C44440082
:10925E0043504400494E44004F555444004C444939
:10926E0052004350495200494E4952004F54495200
:10927E00004C444452004350445200494E44520064
:10928E004F5444520052455449005245544E0053D7
:10929E004554003F3F3F002843290028484C2900F1
:1092AE004E5A005A004E43004300504F00504500A6
:1092BE0050004D00462D482D4D2D4F2D542D562D21
:1092CE00AA12412DC112BF12BC12B912B712B4129A
:1092DE00B212AF12B712B412B212AF12842D512DB8
:1092EE004A2D432D8911512D4A2D432D0F120C124B
:1092FE00E2119011081204120012FC11F811F4116F
:10930E00EF11EA11E61112121612CB11C811C41187
:10931E00C011B811BC11B411B011842D512D4A2DAC
:10932E00432D842D4A2D432D842D4A2D432DD611A8
:10933E00DA11D211CE11842D7E2D4A2D432D842D7E
:10934E00812D4A2D432DD211CE11CB11C811C4112E
:10935E00C011B811412D562D542D4F2D4D2D482D88
:10936E00462D8F128A12851280127B12761271127E
:10937E006C12671263125F125B12561252124E1269
:10938E004A1246124212941299123B122F122B12AB
:10939E002712241221121D121912ED5B22FFED531A
:1093AE0031FF23CD3326CD43263003B728057AED82
:1093BE005331FFCD33267EB72818FE2CC210012361
:1093CE00CD3326CD4326DA1001214AFFCDD502DA60
:1093DE0010012A31FF2222FF3A3AFFB7281A2A3704
:1093EE00FF2222FF213AFF113CFFCD5F14213EFFE9
:1093FE001140FFCD5F14181B2142FF1144FFCD5FBA
:10940E00142146FF1148FFCD5F14214AFF114CFF76
:10941E00CD5F142A20FFF92A22FFE5DD2A1CFFFD6D
:10942E002A1EFF2A14FFE5ED4B16FFED5B18FF2AEF
:10943E001AFFD9F1082A0CFFE5ED4B0EFFED5B107C
:10944E00FF2A12FF3A24FFED473A25FFED4FF1C9EF
:10945E007EB7C81A4F131A473EFF02C923CD3326D3
:10946E00CD4326DA1001CD33267EB7C2100179B76F
:10947E002004ED5B07FFEBCD5225E521602BCD4996
:10948E0025E17EE5CD57253E20CD9C2DCDA925CDC0
:10949E0033267EB72007E1232207FF18DAFE2D20A0
:1094AE0007E12B2207FF18CFFE2E2007E12207FF30
:1094BE00C3C700CD4326B7E1CA100173232207FFAD
:1094CE00ED5B44FF1A3243FFED5B48FF1A3247FF54
:1094DE0018A5AF4F3242FF3246FF3226FF23CD335F
:1094EE0026FE4720063226FF231803CD4326CD3312
:1094FE0026B7C2100179B720031100003E2ECD9C75
:10950E002DCD8E2DFE532878FE3A280DFE0D28EC1B
:10951E00FE0A28E8CD8E2D18F3CD6E254F47CD6E61
:10952E002567814FCD6E256F814F19CD8015CD6E7C
:10953E0025320AFF814F78B72814CD6E25F5814F5D
:10954E003A0AFFB72005F177231801F110ECCD6E22
:10955E00258120143A0AFFB7CA2315CD92253A2643
:10956E00FFB7280A2A27FFE921372BCD4925C3C784
:10957E00003A26FFFE47C02227FF3E013226FFC9D2
:10958E00CD8E2D320AFFCD6E25474FCD6E256781CC
:10959E004FCD6E256F814F19CD8015050505281508
:1095AE00CD6E25F5814F3A0AFFFE312005F1772366
:1095BE001801F110EBCD6E2581FEFF20123A0AFF45
:1095CE00FE3728AAFE3828A6FE39288FC323152178
:1095DE00442B1897237EFE492804FE532004233281
:1095EE0009FFCD3326CD4326B7281CD5DDE1CD337B
:1095FE00267EFE2C201123CD3326CD4326B72807F9
:10960E00CD33267EB72803C31001DDE5E1EB23B78A
:10961E00ED52CD41167CB520F93A09FFFE492009DD
:10962E0021632BCD4925C3C70021712BCD4925C3FD
:10963E00C7000E107CB720057DB930014F0600B76C
:10964E00ED42413A09FFFE4920303E3ACD9C2D783D
:10965E00CD5725487ACD57257A814F7BCD57257B1F
:10966E00814FAFCD57251AF5CD5725F1814F1310E8
:10967E00F579ED44CD5725C392253E53CD9C2D3E15
:10968E0031CD9C2D78C6034FCD57257ACD57257AEF
:10969E00814F7BCD57257B814F1AF5CD5725F18113
:1096AE004F1310F5792FCD5725C3922523CD332691
:1096BE00B72006CD4117C3C700EB21272CBE280DBE
:1096CE004F237EB72869790105000918F0237EFE25
:1096DE000F2009234E236669131A18E1B728504E3E
:1096EE00235E2356D5237E23666FCD49253E3DCD81
:1096FE009C2D79E607FE012008E17EE5CD57251861
:10970E000CE1E5237ECD57252B7ECD57253E20CD72
:10971E009C2DC5CDA925CD3326CD4326B7280DC109
:10972E00E179FE012003731803732372C3C700C3CC
:10973E001001217E2B5E2356237AB3CA9225D5EBD8
:10974E00CD4925EBD13E2BBA20073EE9BB200218AE
:10975E00293E2CBA20053E10BB281F5E2356237EC1
:10976E0023EBFE0120077ECD5725EB18C8237ECDB7
:10977E0057252B7ECD5725EB18BB5E2356231AD5C6
:10978E00E52163FF01BD1711C517F5F1CB27300693
:10979E00F50A77F11804F51A77F1031323F57EB75E
:1097AE0020E9F12163FFCD4925E1D1231887535AD2
:1097BE002E482E504E432E2E2E2E2E2E2E2E494E0F
:1097CE004952B9494E4452BB4F555449BD4F544965
:1097DE0052BE4F555444BF4F544452C048414C544E
:1097EE00B352455449AF5245544EB0444A4E5AAC0A
:1097FE0043414C4CAD43504452A84C444952834CC7
:10980E00444452855055534888524C43418A5252D3
:10981E0043418E43504952A64C4449824C444484A1
:10982E0045585887504F5089524C418B524C438C5F
:10983E005252418F52524390534C41925352419344
:10984E0053524C944144449541444396494E439758
:10985E0053554298534243994445439A414E449B33
:10986E00584F529D43504C9E4E45479F434346A0F2
:10987E00534346A1424954A2534554A3524553A4BF
:10988E00435049A5435044A7524554AE525354B188
:10989E004E4F50B2494E49B8494E44BA4F5554BC3A
:1098AE00444141C1524C44C2525244C34F5247C428
:1098BE00455886524C8D5252914F529C4350A94A54
:1098CE0050AA4A52AB494DB6494EB74449B44549E0
:1098DE00B54C44814442C54457C600284243299A98
:1098EE00284445299B28484C299C284958299D28BD
:1098FE004959299E28535029A02843299F4146277C
:10990E0083414682424385444588484C8B49588E54
:10991E0049598F5350904E5A944E4395504F9750ED
:10992E00459841814284438644874589488A4C8CB8
:10993E00498D52915A924D935096002849582BA119
:10994E002849592BA22849582DA42849592DA5003C
:10995E0023CDB324B72811CD4326DA1001ED534E93
:10996E00FFCDB324B7C210012A4EFF2250FFAF32F3
:10997E0052FF3254FF3255FF3256FF2A50FFCD525E
:10998E002521602BCD4925216CFFCBCECDA925E518
:10999E00216CFFCB8EE1CD03257EFE1B280DFE2E06
:1099AE002809B7C2491ACDC61918C3CDC6192A50EF
:1099BE00FF224EFFC3C7003E0AC39C2D21A212CD2B
:1099CE00C619CD492521512BCD492518A13A54FF51
:1099DE00FE442837FE452838FE46283F3E200E26F8
:1099EE002177FF77230D20FB3E0D7723AF77CD49EF
:1099FE00252A50FF1177FFD5CD5308E1CD49252AF1
:109A0E0050FFCD411A2250FFC37D19CDC61918EF54
:109A1E00CD371ACD411A2202FF1808CD371A23234B
:109A2E002202FFCD170718D7CDC6192A50FF2200E4
:109A3E00FFC93A53FF4FAF4709C9CD8C23DACB1973
:109A4E003A52FFFE01CA2420FE02CAAE203A54FF4B
:109A5E00010D0021741AEDB1C2CB1921811A090929
:109A6E004E2346C5C901061516192B373C2A2D2241
:109A7E002423AB1AC91AE71A681B751B951B9E1B6C
:109A8E00DE1B131C1B1C941C161DA01DC0C8D0D899
:109A9E00E0E8F0F8C6CED6DEE6EEF6FE219B1A2200
:109AAE005FFF21A31A2261FF183A80889098A0A820
:109ABE00B0B8868E969EA6AEB6BE21B91A225FFFAC
:109ACE0021C11A2261FF181C4048505860687078F6
:109ADE00464E565E666E767E21D71A225FFF21DFD6
:109AEE001A2261FF3A55FFFE19C2CB192A57FF7C85
:109AFE00B7C2CB197DFE08D2CB193A56FFFE2128EC
:109B0E002CFE24283AFE22283BFE25283FED4B5FF3
:109B1E00FF09563A56FF21731D010800EDB1C2CB65
:109B2E001979FE0728033E069182C338233A5EFF59
:109B3E005F16DDED4B61FF094B5E3ECBC35B233AF7
:109B4E005DFF18EC3A5CFF5F16FD18E73A5BFF18F5
:109B5E00F6ECE4F4D4C4FCCCDC11601B180BEAE286
:109B6E00F2D2C2FACADA116D1B21A9210108003AFC
:109B7E0055FFEDB1C2CB193A56FFFE19C2CB196291
:109B8E006B097EC32C2111D341ED4B55FF180B11E0
:109B9E00DB403A55FF473A56FF4F79FE23281FFE0A
:109BAE001FC2CB1978FE01280F215D1D010600CDC5
:109BBE00021CDACB197A18037AC638C386232A59BF
:109BCE00FF7CB7C2CB197DF57B1825141215062123
:109BDE00DA1B01040016203A55FFCD021CDACB1910
:109BEE003A56FFFE19C2CB19CDD524DACB19F57A28
:109BFE00C34E21EDA1280C5F7AC6085779B07B20A1
:109C0E00F237C9C9119F423EDE081806118F4A3E2F
:109C1E00CE083A55FFFE01282AFE0BC2CB193A5642
:109C2E00FFFE052819FE082811FE0B2809FE10C29A
:109C3E00CB193E3018093E2018053E101801AF8290
:109C4E00C386233A56FF21731D010900EDB120187A
:109C5E0079FE082810B728057B91C337202A57FFB5
:109C6E000857C3301E7B18F2217C1D010400EDB194
:109C7E00C2CB19215BFF0956790EFDFE0238020E8A
:109C8E00DD1DC3731E1187093EC6083A56FF473ABB
:109C9E0055FFFE0128ADFE0B2847FE0E2809FE0FCC
:109CAE00C2CB190EFD18020EDD78FE052819FE082E
:109CBE002819FE0E2819FE0FCAE81CFE10C2CB1979
:109CCE003E39F579C34E213E0918F73E1918F3793E
:109CDE00FEDDC2CB193E2918E979FEFDC2CB19185B
:109CEE00F478FE052812FE082813FE0B2814FE1029
:109CFE00C2CB193E39C3691C3E09C3691C3E19C348
:109D0E00691C3E29C3691C3A56FF473A55FFFE02AD
:109D1E002826FE08282CFE20C2CB19781EE3FE0B47
:109D2E002813FE0E16DD2807FE0FC2CB1916FD7B7B
:109D3E00F57AC34E217B181278FE03C2CB193E086A
:109D4E00180878FE0BC2CB193EEBC3372001040670
:109D5E0007090A0C05080B0E0F212422250D1011E0
:109D6E001A1B1C2301040607090A0C1C19212422A4
:109D7E00251A1B0D112368605850484078E81DF9CC
:109D8E001DFE1D021E071E0C1E1A1E1F1E271E2C38
:109D9E001E3A55FF215C1D010700EDB1C23E1E218A
:109DAE00851D09563A56FF21731D010800EDB1209D
:109DBE000C79FE0728033E0691B2C33720217B1D86
:109DCE00010A00EDB1C2CB1979FE0530067AFE7894
:109DDE00C2CB19218C1DC36D1A3E3A2A50FF772330
:109DEE00ED5B59FF732372C338213E5FC386233E5A
:109DFE005718F93E1AC337203E0AC337203A5BFF85
:109E0E004F1EFD3E06B2577BC343223A5CFF18F04D
:109E1E003A5DFF4F1EDD18EB3A5EFF18F67AD63A22
:109E2E00572A57FF7CB7C2CB197DF57AC34E210155
:109E3E000500EDB1207479B7286CFE01284EFE02A4
:109E4E002835FE03282916ED1E4B0E013A56FFFE4D
:109E5E0019280A7B2159FF4E235EC35B232157FF2E
:109E6E005E2356792A50FF7123732372C33821164D
:109E7E00ED1E5B0E1118D50E21ED5B57FF3A56FF06
:109E8E00FE1928E00E2AED5B59FF18D816DD0E21BB
:109E9E002157FF3A56FFFE1928050E2A2159FF7940
:109EAE004E235EC35B2316FD18E4010400EDB120C2
:109EBE003F215BFF0956791EFDFE0238021EDD3A78
:109ECE0056FFFE19281A215C1D010700EDB1C2CB09
:109EDE001979FE063E7728033E75914B5FC3731EBC
:109EEE002A57FF7CB7C2CB193E364A535DC35B235C
:109EFE00010700EDB1C2CB19210D1FC36D1A291F29
:109F0E005E1FCB1FCF1FD41F8D1FD91F010B05083E
:109F1E00100E0F222273534322323A56FF211B1F7B
:109F2E00010700EDB1C2CB1921221F09794E2A5922
:109F3E00FFFE0538055D54C3731EFE02380816ED8C
:109F4E00794D5CC35B2316FDB728F516DD18F13A83
:109F5E0056FFFE192819FE012811215D1D0106006C
:109F6E00EDB1C2CB193E7591C337203E7718F92A51
:109F7E0057FF7CB7C2CB197DF53E36C34E213A56FC
:109F8E00FFFE0B281DFE0E281DFE0F281DFE192894
:109F9E0022FE23C2CB1916ED3E7B2A59FF4D5CC320
:109FAE005B233EF9181C16DD180216FD3EF9F57AF4
:109FBE00C34E210E31ED5B57FFC3731E3E121802C6
:109FCE003E02C337203E4FC386233E47C386230738
:109FDE000A0B0E0F1E20212E323334354127FBF390
:109FEE007600C9373F2F1F0F1707D9272825263A86
:109FFE003B3839040502031F403E3F3D2F3042439C
:10A00E00676F454DA3ABB3BB44B0A0B8A8B2A2BA1C
:10A01E00AAB1A1B9A93A54FF010E0021DE1FEDB17C
:10A02E00C2432021EC1F097E2A50FF773E01325396
:10A03E00FFC3DC1901150021FA1FEDB1C2CB192A9D
:10A04E0050FF3EED7723EB210F20097E123E0218C2
:10A05E00DD0809171A181B1C1D292A2E312B2C2D31
:10A06E000C100D1112131436444546C220D7201081
:10A07E00216A23042309230E23132318231D2322CD
:10A08E002322213D2158216B219521B921F321F75E
:10A09E0021FB21FF21032285228A22CC22D0223AC3
:10A0AE0054FF011A00216020EDB1C2CB19217A2094
:10A0BE00C36D1A3A55FFFE19C2CB192A50FFED4B4C
:10A0CE0057FF712370C35C203A55FFFE192820FEFE
:10A0DE0026C2CB192A57FFAF4FED5B50FF7EFE22F3
:10A0EE002809B728061223130C18F279C33D20ED68
:10A0FE004B57FF78B7C2CB192A50FF713E01C33DB3
:10A10E00203A55FFFE19C2CB192A57FF2250FFAF36
:10A11E00C33D203A55FFFE19C2CB193ECD2A50FF42
:10A12E007723ED5B57FF7323723E03C33D203A55F1
:10A13E00FFFE19C2CB19CDD524DACB19F53E102A64
:10A14E0050FF7723F177C35C203A55FFFE19C2CB3F
:10A15E0019CDD524DACB19F53E1818E32A57FF7C12
:10A16E00B7C2CB197D218521010800EDB1C2CB19F3
:10A17E00218D21C335200008101820283038FFF714
:10A18E00EFE7DFD7CFC73A55FF21A921010800ED30
:10A19E00B1C2CB1921B121C33520061213141516E5
:10A1AE001718E8E0F0D0C0F8C8D83A55FFFE1928C5
:10A1BE00212EE9FE1C2817FE1D280CFE1EC2CB19EF
:10A1CE007DF53EFDC34E217DF53EDDC34E217DC3A3
:10A1DE0037203EC3C32C2106060606460605040399
:10A1EE000201000716B8180E16A8180A16B018069F
:10A1FE0016A0180216903A55FF21731D010D00EDA1
:10A20E00B1C2CB1921E621097EB25779FE05DA24B7
:10A21E00227AC33720FE04380E2A57FF7CB7C2CBF2
:10A22E00197DF57AC34E21FE023EFD38023EDD2138
:10A23E005BFF094E2A50FF777A23772371C33821AB
:10A24E00010405060708090A0B0C101C0E0F212429
:10A25E002225353535352B2B353B2D2B251D1B1545
:10A26E000D0B053D34343434232334332C23241C7A
:10A27E0013140C03043C11612218031173223A5576
:10A28E00FF214F22011200EDB1626BC2CB1979167C
:10A29E00FDFE06D23520097E5F79FE0438082802BD
:10A2AE0016DD7BC33122FE02380216DD7A53C33E21
:10A2BE00220205080B0E0FE0E0E0D0C0F0160118E8
:10A2CE0002160521C0220106003A55FFEDB1C2CBA0
:10A2DE001921C622097EB25779FE027AD237201E84
:10A2EE00FD79B728021EDD7AF57BC34E21060504E3
:10A2FE000302010007113E38181C112E28181711E1
:10A30E0026201812111E18180D1116101808110EED
:10A31E000818031106003A55FF21731D010800EDC0
:10A32E00B1200C21FC22097EB2F53ECBC34E212179
:10A33E007C1D010400EDB1C2CB1916FD79FE023869
:10A34E000216DD215BFF094E23463ECB2A50FF72DB
:10A35E002377237123733E04C33D203A58FFB7C2BF
:10A36E00CB193A57FFFE03D2CB190E46B728070E6C
:10A37E00563D28020E5E79F53EEDC34E21CD4F249B
:10A38E00D83254FFCDC6237EB7C8FE20C2C423CD1B
:10A39E00CE23D83255FF08CDC62308FE26C87EB779
:10A3AE00C8FE2C2010CDCE23D83256FFCDC6237E2C
:10A3BE00B72002C9F137C93A52FF3C3252FFC923C6
:10A3CE00CD4524D0CD4A243840F5CD7824DAC323A8
:10A3DE007AB720E07EFE2920DB23F1F5FE21200551
:10A3EE00015EFF1807FE22200B015CFF7BFE803012
:10A3FE00C302F1C9FE24200C015DFF7BFE8130B447
:10A40E00ED4418ED015BFF18F27EFE28201223CDDD
:10A41E007824D87EFE29209D23ED5359FF3E23C973
:10A42E00FE222007232257FF3E26C9CD7824D8EDE1
:10A43E005357FF3E19C911EA18180B114A1918067D
:10A44E002177FF11CD17E51ABE2004231318F8E665
:10A45E0080200E131AE68028FA131AB72808E1187E
:10A46E00E51AE67FD1C9E137C9119AFF0E00CDBAC0
:10A47E0024D81213230CCDC424380B1213230C79B9
:10A48E00FE07282F18F008AF1208FE48280BE5210A
:10A49E009AFFCD2A02E15059C923E5219AFFCD43F7
:10A4AE0026E1B7C97EFE20C02318F97EFE3A30039E
:10A4BE00FE30D037C97EFE30D8FE3A3807FE41D87E
:10A4CE00FE4730EFB7C9E5D5ED5B50FF13132A57A2
:10A4DE00FFAFED52380D7CB720177DFE803012B7DE
:10A4EE00D1E1C97CFEFF20097DED44FE817D3F1840
:10A4FE00EF3718ECE5D5C52177FF545D0E20CDB3AF
:10A50E0024CD2825B7280E0E0023CDB324B728035B
:10A51E00CD28251B12C1D1E1C906001213B7C8B947
:10A52E00C8FE2220060878EE014708237EB928EBE4
:10A53E00CB4020E7FE2028E918E17EA7C8CD9C2D50
:10A54E002318F77CCD57257DF51F1F1F1FCD6025C6
:10A55E00F1E60FC630FE3ADA9C2DC607C39C2DAF2E
:10A56E00CD762507070707C54FCD8E2DFE30381146
:10A57E00FE3A380AFE413809FE473005D607D63076
:10A58E00B1C1C93E0DCD9C2D3E0AC39C2DE521A522
:10A59E0025CD4925E1C91B5B32002177FF0628D561
:10A5AE00E5581D0600CD8E2DFE0D285AFE0A2856A2
:10A5BE00FE08283BFE7F2837FE22200AF53A6CFF64
:10A5CE00EE04326CFFF1FE2038DBFE8030D74F7880
:10A5DE00BB30D20479CD9C2DFE61380FFE7B300B43
:10A5EE00E5216CFFCB562002E6DFE1772318B67823
:10A5FE00A728B2052B3E08CD9C2D3E20CD9C2D3E8E
:10A60E0008CD9C2D189FE5216CFFCB4620053E0DF5
:10A61E00CD9C2DCB4E20053E0ACD9C2DCB96E13602
:10A62E0000E1D1C97EFE20C02318F9FE61D8FE7B61
:10A63E00D0C6E0C90E001100007EFE30382CFE3A66
:10A64E00380AFE413824FE473020D607D630171779
:10A65E00171717CB13CB1217CB13CB1217CB13CB5A
:10A66E001217CB13CB12230C18CF79B72806FE0581
:10A67E003002B7C937C9E5C521A22606000909016E
:10A68E00CE26B7E5ED42E1300746236668C1E3C941
:10A69E00C1E1C94300CE269C2D49258E2D972D1044
:10A6AE00275225572560259C25AE25332692253A1F
:10A6BE0026432647287D28F3289E2653082A023152
:10A6CE0000FF3A4AFFB72806214BFFCDFF273A3A43
:10A6DE00FFB72806213BFFCDFF273A3EFFB72806DE
:10A6EE00213FFFCDFF273A46FFB728062147FFCD72
:10A6FE000B283A42FFB728062143FFCD0B28C3D5BE
:10A70E0027AFC9F5ED5F3225FFED573224FF221238
:10A71E00FFED5310FFED430EFFE1220CFF08F5D9BC
:10A72E00221AFFED5318FFED4316FFE12214FFDD51
:10A73E00221CFFFD221EFFE12B2222FFED7320FFC4
:10A74E003100FFAF575F3A4AFFB72809113528216C
:10A75E004BFFCDFF273A46FFB72809113528214771
:10A76E00FFCD0B283A42FFB728091135282143FFA8
:10A77E00CD0B283A3AFFB72809113E28213BFFCDD1
:10A78E00FF273A3EFFB72809113E28213FFFCDFF94
:10A79E00277AB32003112B281AFE54280CEBCD492F
:10A7AE0025CD4117CD1228181D3A33FFFE46280A33
:10A7BE00EBCD4925CD4117CD1228CD972D2813CDA0
:10A7CE008E2DFE03200CAF3239FF676F2235FFC38B
:10A7DE00C7003A39FFB7C2F6272A35FF2B2235FFBD
:10A7EE007DB42003C3C7002A22FF2237FFC34B04C8
:10A7FE00E57E234E234602E1AF2B77C97E234E23FF
:10A80E004602C92A22FF2270FFCDA908CD6E08216B
:10A81E0077FFCD49252A22FF2270FFC952535420BB
:10A82E003338480D0A00427265616B210D0A0054DF
:10A83E0072616365210D0A00F5C5D5E5DDE5E5DD3F
:10A84E00E1EBE521050019AF77EBE10101003E0ACE
:10A85E00CD7D28F6301B120C7CB520F279FE062831
:10A86E0006DDE5E1EBEDB0DDE1E1D1C1F1C9C5D524
:10A87E004F060FAF291791380D292C1791380C2937
:10A88E002C10F8C39E2829178138F42910F981D18C
:10A89E00C1C92229FFED532BFFAF322DFF322EFF00
:10A8AE00322FFF3230FF0610212DFFCB2623CB1681
:10A8BE002129FFCB2623CB16212FFFCB1623CB1618
:10A8CE002A2BFF5D542A2FFFAFED523002180B22B8
:10A8DE002FFF3A2DFFF601322DFF10CC2A2DFFED62
:10A8EE005B2FFFC9F5C5B71804CB21CB101F30F96C
:10A8FE000920F6C1F1C93F203A436F6D6D616E6458
:10A90E002048656C700D0A234C7C3C6E756D3E20A4
:10A91E003A4C61756E63682070726F6772616D0D6F
:10A92E000A415B3C616464726573733E5D203A203C
:10A93E004D696E6920417373656D626C65206D6F34
:10A94E0064650D0A425B317C325B2C3C6164723E65
:10A95E005D5D203A536574206F72204C69737420CC
:10A96E00427265616B20506F696E740D0A42435BD3
:10A97E00317C325D203A436C6561722042726561B2
:10A98E006B20506F696E740D0A445B3C6164723EBD
:10A99E005D203A44756D70204D656D6F72790D0AAC
:10A9AE0044495B3C6164723E5D5B2C733C73746521
:10A9BE0070733E7C3C6164723E5D203A4469736103
:10A9CE007373656D626C650D0A475B3C6164723E24
:10A9DE005D5B2C3C73746F70206164723E5D203A37
:10A9EE00476F20616E642053746F700D0A4C5B4785
:10A9FE007C3C6F66667365743E5D203A4C6F616495
:10AA0E002048657846696C652028616E6420474F42
:10AA1E00290D0A505B497C535D203A5361766520BF
:10AA2E0048657846696C6528493A496E74656C2CA0
:10AA3E00533A4D6F746F726F6C61290D0A525B3C05
:10AA4E007265673E5D203A536574206F72204475BF
:10AA5E006D702072656769737465720D0A535B3C85
:10AA6E006164723E5D203A536574204D656D6F7260
:10AA7E00790D0A545B3C6164723E5D5B2C3C7374D1
:10AA8E006570733E7C2D315D203A20547261636592
:10AA9E0020636F6D6D616E640D0A544D5B497C537E
:10AAAE005D203A5472616365204F7074696F6E2039
:10AABE00666F722043414C4C0D0A54505B4F4E7CD6
:10AACE004F46465D203A5472616365205072696E3E
:10AADE0074204D6F64650D0A000D0A454D555A38A8
:10AAEE0030204D4F4E49544F52205265762E4230F3
:10AAFE003420666F722053757065724D455A38302A
:10AB0E000D0A54686973206D6F6E69746F722069D7
:10AB1E0073206261736564206F6E20756E696D6F50
:10AB2E006E2E0D0A005D20004572726F72206968EC
:10AB3E0065780D0A004572726F7220737265630D2F
:10AB4E000A004572726F720D0A00203A00207C20B6
:10AB5E00002020003A303030303030303146460D53
:10AB6E000A00533930333030303046430D0A00D3AB
:10AB7E002B0DFF01D72B0EFF02DD2B10FF02E32B57
:10AB8E0012FF02E92B0CFF01EE2B1CFF02F32B1E12
:10AB9E00FF02F82B15FF01FE2B16FF02042C18FFE7
:10ABAE00020A2C1AFF02102C14FF01152C20FF0292
:10ABBE001A2C22FF021F2C24FF01232C25FF01003B
:10ABCE000000000041203D00204243203D00204473
:10ABDE0045203D0020484C203D002046203D0020D1
:10ABEE0049583D002049593D000D0A41273D00209E
:10ABFE004243273D00204445273D0020484C273D39
:10AC0E00002046273D002053503D002050433D007C
:10AC1E0020493D0020523D00410F712C0000420F93
:10AC2E007F2C0000430FA12C0000440FAF2C00001E
:10AC3E00450FD12C0000460FDF2C0000480FED2CE5
:10AC4E000000490F1D2D00004C0F0F2D0000500F5E
:10AC5E00312D0000520125FF8C2D530F392D000090
:10AC6E00000000010DFF412D270115FF5A2D000098
:10AC7E0000010FFF462D270117FF612D430F932C67
:10AC8E000000000000020EFF432D270216FF5D2D6F
:10AC9E00000000010EFF482D270116FF642D000055
:10ACAE00000111FF4D2D270119FF6B2D450FC32CF0
:10ACBE0000000000000210FF4A2D270218FF672D2A
:10ACCE000000000110FF4F2D270118FF6E2D000010
:10ACDE0000010CFF582D270114FF7B2D00000001F1
:10ACEE0013FF542D27011BFF752D4C0F012D000056
:10ACFE000000000212FF512D27021AFF712D0000D5
:10AD0E00000112FF562D27011AFF782D00000001B9
:10AD1E0024FF8A2D58021CFF7E2D59021EFF812D05
:10AD2E000000430222FF872D0000500220FF842DD9
:10AD3E0000004100424300420043004445004400ED
:10AD4E004500484C0048004C004600412700424355
:10AD5E00270042270043270044452700442700458B
:10AD6E002700484C27004827004C2700462700495B
:10AD7E00580049590053500050430049005200DB1F
:10AD8E0001CB4728FADB00C9DB01CB47C9F5DB0154
:10AD9E00CB4F28FAF1D300C9FFFFFFFFFFFFFFFFE4
:10ADAE00FFFFFFFFFFFFFFFFFFFFFFFFFFFFFFFFA5
:10ADBE00FFFFFFFFFFFFFFFFFFFFFFFFFFFFFFFF95
:10ADCE00FFFFFFFFFFFFFFFFFFFFFFFFFFFFFFFF85
:10ADDE00FFFFFFFFFFFFFFFFFFFFFFFFFFFFFFFF75
:10ADEE00FFFFFFFFFFFFFFFFFFFFFFFFFFFFFFFF65
:10ADFE00FFFFFFFFFFFFFFFFFFFFFFFFFFFFFFFF55
:10AE0E00FFFFFFFFFFFFFFFFFFFFFFFFFFFFFFFF44
:10AE1E00FFFFFFFFFFFFFFFFFFFFFFFFFFFFFFFF34
:10AE2E00FFFFFFFFFFFFFFFFFFFFFFFFFFFFFFFF24
:10AE3E00FFFFFFFFFFFFFFFFFFFFFFFFFFFFFFFF14
:10AE4E00FFFFFFFFFFFFFFFFFFFFFFFFFFFFFFFF04
:10AE5E00FFFFFFFFFFFFFFFFFFFFFFFFFFFFFFFFF4
:10AE6E00FFFFFFFFFFFFFFFFFFFFFFFFFFFFFFFFE4
:10AE7E00FFFFFFFFFFFFFFFFFFFFFFFFFFFFFFFFD4
:10AE8E00FFFFFFFFFFFFFFFFFFFFFFFFFFFFFFFFC4
:10AE9E00FFFFFFFFFFFFFFFFFFFFFFFFFFFFFFFFB4
:10AEAE00FFFFFFFFFFFFFFFFFFFFFFFFFFFFFFFFA4
:10AEBE00FFFFFFFFFFFFFFFFFFFFFFFFFFFFFFFF94
:10AECE00FFFFFFFFFFFFFFFFFFFFFFFFFFFFFFFF84
:10AEDE00FFFFFFFFFFFFFFFFFFFFFFFFFFFFFFFF74
:10AEEE00FFFFFFFFFFFFFFFFFFFFFFFFFFFFFFFF64
:10AEFE00FFC3062FC36B2FC30D2FAC37223F214547
:10AF0E0080F9C3374B11D53106632145801A77235B
:10AF1E001305C21C2FF9CDD633CDA23932EF8032B4
:10AF2E003E8121C0FE11A181CD6C35DA742F11CE78
:10AF3E00FF22F48019229F80CDB1332A9F8011EF1A
:10AF4E00FF19113E817D936F7C9A67E5218C2FCD81
:10AF5E004040E1CDE346217D2FCD404031AB80CD49
:10AF6E00D633C3EF3221C32FCD4040C37A2F2042B8
:10AF7E007974657320667265650D0A00005A383063
:10AF8E002042415349432056657220342E37620DBC
:10AF9E000A436F70797269676874202843292031DB
:10AFAE00393738206279204D6963726F736F66741A
:10AFBE000D0A00004D656D6F72792073697A6520F8
:10AFCE006E6F7420656E6F7567680D0A5468652024
:10AFDE0073797374656D2069732073746F70706507
:10AFEE00642E0D0A000058451C466E454880003FF1
:10AFFE0085422E3FE247C148FD43304836493C4921
:10B00E009D49B249D9421C4A9680B241CA3F4C4230
:10B01E00C141D2413E4AD14AE24112421C42C54E82
:10B02E0044C64F52CE455854C4415441C94E505552
:10B03E0054C4494DD2454144CC4554C74F544FD2C8
:10B04E00554EC946D24553544F5245C74F5355429C
:10B05E00D2455455524ED2454DD3544F50CF5554E0
:10B06E00CF4ECE554C4CD7414954C44546D04F4B8C
:10B07E0045C44F4B45D3435245454ECC494E45539F
:10B08E00C34C53D749445448CD4F4E49544F52D3D5
:10B09E004554D245534554D052494E54C34F4E5445
:10B0AE00CC495354C34C454152C34C4F4144C353F6
:10B0BE00415645CE4557D4414228D44FC64ED35063
:10B0CE004328D448454ECE4F54D3544550ABADAA29
:10B0DE00AFDEC14E44CF52BEBDBCD3474EC94E5457
:10B0EE00C14253D55352C65245C94E50D04F53D379
:10B0FE005152D24E44CC4F47C55850C34F53D349EB
:10B10E004ED4414EC1544ED045454BC445454BD00F
:10B11E004F494E54CC454ED3545224D6414CC15374
:10B12E0043C3485224C8455824C2494E24CC4546F0
:10B13E005424D24947485424CD49442480443741AD
:10B14E00361C3B9138233A583D523AA8384E383186
:10B15E003820390A373D386C3893384237914202DD
:10B16E003983379742363FE042274A93380D4A01DA
:10B17E004A054A334B99809C8044397037B635EB7B
:10B18E003793389338B03379CA4679FE427C3C44C3
:10B19E007C9D447FEB4750B13C46B03C4E46534EEF
:10B1AE0052474F4446434F564F4D554C42534444DD
:10B1BE002F304944544D4F534C535354434E5546E0
:10B1CE004D4F4858424EC36B2FC3C137D300C9D61B
:10B1DE00006F7CDE006778DE00473E00C90000008D
:10B1EE00354ACA99391C76982295B3980ADD479844
:10B1FE0053D199990A1A9F9865BCCD98D6773E98E7
:10B20E0052C74F80DB00C901FF1C00001400140060
:10B21E0000000000C3E934C30000C30000C30000F7
:10B22E00A281FEFF3F81204572726F720020696E0F
:10B23E0020004F6B0D0A0000427265616B00210405
:10B24E0000397E23FE81C04E234623E569607AB322
:10B25E00EBCA6732EBCD6C35010D00E1C809C35165
:10B26E0032CD8A32C5E3C1CD6C357E02C80B2BC3FD
:10B27E007632E52A1F81060009093EE53ED0956F1C
:10B28E003EFF9CDA99326739E1D81E0CC3B8322AD8
:10B29E000E8122A1801E02011E14011E00011E122B
:10B2AE00011E22011E0A011E18CDD633328A80CD10
:10B2BE00953921AB31573E3FCD7D35197ECD7D354C
:10B2CE00CDFA36CD7D35213532CD40402AA18011C3
:10B2DE00FEFFCD6C35CA0D2F7CA53CC4DB463EC1AE
:10B2EE00AF328A80CD9539214132CD404021FFFFCA
:10B2FE0022A180CDE934DAFC32CDFA363C3DCAFCCF
:10B30E0032F5CDC637D5CD003447D1F1D2DA36D5A8
:10B31E00C5AF321181CDFA36B7F5CD9033DA35336C
:10B32E00F1F5CA6738B7C5D24C33EB2A1B811A0226
:10B33E000313CD6C35C23D336069221B81D1F1CA36
:10B34E0073332A1B81E3C109E5CD7032E1221B81E3
:10B35E00EB74D123237323722311A6801A77231340
:10B36E00B7C26B33CDBC3323EB626B7E23B6CAFC04
:10B37E0032232323AFBE23C28433EB732372C378ED
:10B38E00332AA380444D7E23B62BC823237E236607
:10B39E006FCD6C3560697E23666F3FC83FD0C39317
:10B3AE0033C02AA380AF77237723221B812AA38061
:10B3BE002B2213812AF480220881AFCD0A372A1B53
:10B3CE0081221D81221F81C12A9F80F921F88022AE
:10B3DE00F680AF6F67221981321081222381E5C575
:10B3EE002A1381C93E3FCD7D353E20CD7D35C39399
:10B3FE0080AF32F3800E0511A6807EFE20CA8834FF
:10B40E0047FE22CAA834B7CAAF343AF380B77EC219
:10B41E008834FE3F3E9ECA88347EFE30DA3334FED8
:10B42E003CDA8834D5112C30C5018434C5067F7EB4
:10B43E00FE61DA4C34FE7BD24C34E65F774EEB2362
:10B44E00B6F24E34047EE67FC8B9C24E34EBE51335
:10B45E001AB7FA80344F78FE88C26F34CDFA362B85
:10B46E00237EFE61DA7834E65FB9CA5E34E1C34CFE
:10B47E003448F1EBC9EB79C1D12312130CD63ACA79
:10B48E009634FE49C2993432F380D654C2093447F9
:10B49E007EB7CAAF34B8CA883423120C13C39F3494
:10B4AE0021A5801213121312C93A8980B73E0032B9
:10B4BE008980C2CC3405CAE934CD7D353E052BCA10
:10B4CE00E0347ECD7D35C3F234052BCD7D35C2F211
:10B4DE0034CD7D35CDA239C3E93421A6800601AF26
:10B4EE00328980CDA5354FFE7FCAB8343A8980B7F0
:10B4FE00CA0B353E00CD7D35AF32898079FE07CA45
:10B50E004F35FE03CCA23937C8FE0DCA9D39FE1544
:10B51E00CAE334FE40CAE034FE5FCAD834FE08CA1D
:10B52E00D834FE12C24A35C5D5E53600CD464B217C
:10B53E00A680CD4040E1D1C1C3F234FE20DAF23410
:10B54E0078FE493E07D2643579713211812304CDDC
:10B55E007D35C3F234CD7D353E08C35E357C92C059
:10B56E007D93C97EE3BE23E3CAFA36C3A432F53A0D
:10B57E008A80B7C27540F1C5F5FE20DAA1353A874B
:10B58E0080473AF08004CA9D3505B8CCA2393C32CA
:10B59E00F080F1C1CFC9CDFF49E67FFE0FC03A8AD8
:10B5AE00802F328A80AFC9CDC637C0C1CD9033C58A
:10B5BE00CD0C36E14E23462378B1CAEF32CD153687
:10B5CE00CD2537C5CDA2395E235623E5EBCDE34617
:10B5DE003E20E1CD7D357EB723CAC235F2E235D6A7
:10B5EE007F4F112D301A13B7F2F4350DC2F435E634
:10B5FE007FCD7D351A13B7F2FE35C3E535E52A8DBD
:10B60E0080228B80E1C9E5D52A8B8011FFFFED5A90
:10B61E00228B80D1E1F0E52A8D80228B80CDFF49EF
:10B62E00FE03CA3836E1C315362A8D80228B80C3BD
:10B63E006E2F3E64321081CDA838C1E5CD913822EF
:10B64E000C8121020039CD5132D1C2713609D52B70
:10B65E00562B5E2323E52A0C81CD6C35E1C255367F
:10B66E00D1F9EB0E08CD8132E52A0C81E3E52AA152
:10B67E0080E3CD6A3BCD7235A6CD673BE5CD9545D2
:10B68E00E1C5D5010081515A7EFEAB3E01C2AD36F9
:10B69E00CDFA36CD673BE5CD9545CD4945E1C5D5CE
:10B6AE00F533E52A1381E30681C533CD2537221301
:10B6BE00817EFE3ACADA36B7C2A432237E23B6CAD8
:10B6CE004C37235E2356EB22A180EBCDFA3611BA0E
:10B6DE0036D5C8D680DAA838FE25D2A432074F0652
:10B6EE0000EB214C31094E2346C5EB237EFE3AD0AA
:10B6FE00FE20CAFA36FE303F3C3DC9EB2AA380CA73
:10B70E001F37EBCDC637E5CD90336069D1D26738A0
:10B71E002B222181EBC9DFC8D7FE1B2811FE03287F
:10B72E000DFE13C0D7FE11C8FE03280718F63EFF04
:10B73E00329280C0F6C022138121F6FFC12AA18069
:10B74E00F57DA43CCA5F372217812A138122198105
:10B75E00AF328A80CD9539F1214732C2D832C3EF4C
:10B76E00322A19817CB51E20CAB832EB2A178122E3
:10B77E00A180EBC9CDC842C0328680C9E52A8F8030
:10B78E0006004F09228F80E1C97EFE41D8FE5B3F45
:10B79E00C9CDFA36CD673BCD4945FAC1373A2C8132
:10B7AE00FE90DAF145018090110000E5CDC445E12F
:10B7BE0051C81E08C3B8322B110000CDFA36D0E5A1
:10B7CE00F5219819CD6C35DAA432626B1929192935
:10B7DE00F1D6305F160019EBE1C3CA37CAC033CDBC
:10B7EE00A3372BCDFA36E52AF480CA0E38E1CD7296
:10B7FE00352CD5CDA3372BCDFA36C2A432E3EB7D53
:10B80E00935F7C9A57DA9932E52A1B810128000949
:10B81E00CD6C35D29932EB229F80E122F480E1C3C8
:10B82E00C033CABC33CDC03301BA36C34D380E0354
:10B83E00CD8132C1E5E52AA180E33E8CF533C5CD3D
:10B84E00C637CD9338E52AA180CD6C35E123DC9344
:10B85E0033D4903360692BD81E0EC3B832C016FF96
:10B86E00CD4D32F9FE8C1E04C2B832E122A18023E6
:10B87E007CB5C28B383A1181B7C2EE3221BA36E3AB
:10B88E003EE1013A0E0006007948477EB7C8B8C8B7
:10B89E0023FE22CA9738C39A38CD5D3DCD7235B49A
:10B8AE00D53AF280F5CD793BF1E32213811FCD6CB1
:10B8BE003BCAFB38E52A2981E523235E23562AA3BA
:10B8CE0080CD6C35D2EA382A9F80CD6C35D1D2F23C
:10B8DE0038210481CD6C35D2F2383ED1CDA141EB69
:10B8EE00CDDA3FCDA141E1CDA445E1C9E5CDA145DC
:10B8FE00D1E1C9CDC8427E47FE8CCA1139CD723511
:10B90E00882B4B0D78CAE236CDC737FE2CC0C3123A
:10B91E0039CD793B7EFE88CA2E39CD7235A92BCD15
:10B92E006A3BCD4945CA9338CDFA36DA4E38C3E173
:10B93E00362BCDFA36CAA239C8FEA5CAD539FEA80D
:10B94E00CAD539E5FE2CCABE39FE3BCAF839C1CD7F
:10B95E00793BE53AF280B7C28E39CDEE46CDFE3F49
:10B96E0036202A2981342A29813A87804704CA8AB7
:10B97E0039043AF080863DB8D4A239CD4340AFC4E5
:10B98E004340E1C340393AF080B7C8C3A23936000C
:10B99E0021A5803E0DCD7D353E0ACD7D35AF32F0F1
:10B9AE00803A86803DC8F5AFCD7D35F1C3B3393AC7
:10B9BE008880473AF080B8D4A239D2F839D60ED260
:10B9CE00CC392FC3ED39F5CDC542CD7235292BF1CA
:10B9DE00D6A8E5CAE8393AF0802F83D2F8393C4729
:10B9EE003E20CD7D3505C2F139E1CDFA36C347395A
:10B9FE003F5265646F2066726F6D2073746172744E
:10BA0E000D0A003A1281B7C29E32C121FF39CD40D4
:10BA1E0040C3EF33CDAB3F7EFE223E00328A80C262
:10BA2E003D3ACDFF3FCD72353BE5CD43403EE5CDB2
:10BA3E00F333C1DA4937237EB72BC5CA9038362C7B
:10BA4E00C3573AE52A2181F6AF321281E3C3633A36
:10BA5E00CD72352CCD5D3DE3D57EFE2CCA8B3A3AA8
:10BA6E001281B7C2F83A3E3FCD7D35CDF333D1C109
:10BA7E00DA4937237EB72BC5CA9038D53AF280B74C
:10BA8E00CAB53ACDFA365747FE22CAA93A3A1281BA
:10BA9E00B757CAA63A163A062C2BCD0240EB21C058
:10BAAE003AE3D5C3C338CDFA36CD5046E3CDA145E2
:10BABE00E12BCDFA36CACC3AFE2CC2123AE32BCD8C
:10BACE00FA36C25F3AD13A1281B7EBC22037D5B6F9
:10BADE0021E73AC44040E1C93F457874726120695C
:10BAEE00676E6F7265640D0A00CD9138B7C2113B57
:10BAFE00237E23B61E06CAB832235E2356EB220ED1
:10BB0E0081EBCDFA36FE83C2F83AC38B3A110000B0
:10BB1E00C45D3D221381CD4D32C2AA32F9D57E23AA
:10BB2E00F5D5CD8745E3E5CDF442E1CDA145E1CD97
:10BB3E009845E5CDC445E1C190CD9845CA573BEB3C
:10BB4E0022A1806960C3B636F92A13817EFE2CC20B
:10BB5E00BA36CDFA36CD1F3BCD793BF6373AF28069
:10BB6E008FB7E8C3B632CD7235282B1600D50E012D
:10BB7E00CD8132CDF03B2215812A1581C178FE7818
:10BB8E00D46A3B7E1600D6B3DAB13BFE03D2B13B8C
:10BB9E00FE0117AABA57DAA432220A81CDFA36C3A9
:10BBAE00953B7AB7C2D83C7E220A81D6ACD8FE0726
:10BBBE00D05F3AF2803DB37BCA364107835F219650
:10BBCE0031197856BAD023CD6A3BC501883BC5439F
:10BBDE004ACD7A4558514E234623C52A0A81C37C45
:10BBEE003BAF32F280CDFA361E24CAB832DA504656
:10BBFE00CD9837D2573CFE262012CDFA36FE48CAD3
:10BC0E00934AFE42CA034B1E02CAB832FEACCAF0B9
:10BC1E003BFE2ECA5046FEADCA463CFE22CAFF3F30
:10BC2E00FEAACA383DFEA7CA633FD6B6D2683CCD3F
:10BC3E00753BCD723529C9167DCD7C3B2A1581E524
:10BC4E00CD7245CD6A3BE1C9CD5D3DE5EB22298143
:10BC5E003AF280B7CC8745E1C90600074FC5CDFA49
:10BC6E003679FE31DA8F3CCD753BCD72352CCD6BEE
:10BC7E003BEB2A2981E3E5EBCDC842EBE3C3973CCE
:10BC8E00CD3E3CE311523CD501F52F094E2366699A
:10BC9E00E915FEADC8FE2DC814FE2BC8FEACC82B90
:10BCAE00C9F6AFF5CD6A3BCDAC37F1EBC1E3EBCDC9
:10BCBE008A45F5CDAC37F1C17921213FC2D33CA3E2
:10BCCE004F78A2E9B34F78B2E921EA3C3AF2801FED
:10BCDE007A175F166478BAD0C3D93BEC3C79B71F9C
:10BCEE00C1D1F5CD6C3B212E3DE5CAC445AF32F234
:10BCFE0080D5CD83417E23234E2346D1C5F5CD87F6
:10BD0E0041CD9845F157E17BB2C87AD601D8AFBB89
:10BD1E003CD0151D0ABE2303CA163D3FC354453CF5
:10BD2E008FC1A0C6FF9FC35B45165ACD7C3BCD6A23
:10BD3E003BCDAC377B2F4F7A2FCD213FC1C3883BF4
:10BD4E002BCDFA36C8CD72352C014F3DC5F6AF322C
:10BD5E00F18046CD9837DAA432AF4F32F280CDFA69
:10BD6E0036DA793DCD9837DA863D4FCDFA36DA7A26
:10BD7E003DCD9837D27A3DD624C2953D3C32F280E5
:10BD8E000F814FCDFA363A10813DCA423EF2A53DA3
:10BD9E007ED628CA1A3EAF321081E550592A238129
:10BDAE00CD6C35112581CA8A442A1D81EB2A1B814F
:10BDBE00CD6C35CAD83D799623C2CD3D789623CA2F
:10BDCE000C3E23232323C3BF3DE1E3D5115A3CCDC3
:10BDDE006C35D1CA0F3EE3E5C50106002A1F81E589
:10BDEE0009C1E5CD7032E1221F816069221D812BD0
:10BDFE003600CD6C35C2FE3DD173237223EBE1C903
:10BE0E00322C81214032222981E1C9E52AF180E3D9
:10BE1E0057D5C5CDA037C1F1EBE3E5EB3C577EFE20
:10BE2E002CCA203ECD723529221581E122F1801EC9
:10BE3E0000D511E5F52A1D813E19EB2A1F81EBCDA8
:10BE4E006C35CA7A3E7EB923C25C3E7EB8235E2331
:10BE5E005623C2483E3AF180B7C2AD32F1444DCAC4
:10BE6E008A4496CAD83E1E10C3B832110400F1CAD5
:10BE7E00C137712370234FCD81322323220A817162
:10BE8E00233AF1801779010B00D29D3EC103712335
:10BE9E007023F5E5CD3546EBE1F13DC2953EF54219
:10BEAE004BEB19DA9932CD8A32221F812B3600CD17
:10BEBE006C35C2BB3E03572A0A815EEB2909EB2B78
:10BECE002B73237223F1DAFC3E474F7E2316E15E7D
:10BEDE00235623E3F5CD6C35D2753EE5CD3546D1EF
:10BEEE0019F13D444DC2DD3E2929C109EB2A1581C8
:10BEFE00C92A1F81EB210000393AF280B7CA1C3FD4
:10BF0E00CD8341CD83402A9F80EB2A08817D934FBC
:10BF1E007C9A41501E0021F280730690C360453A10
:10BF2E00F08047AFC3223FCDB93FCDAB3F01913833
:10BF3E00C5D5CD723528CD5D3DE5EB2B562B5EE19B
:10BF4E00CD6A3BCD723529CD7235B4444DE37123A4
:10BF5E0070C3F83FCDB93FD5CD3E3CCD6A3BE35ED5
:10BF6E002356237AB3CAB0327E23666FE52A238125
:10BF7E00E32223812A2781E52A2581E5212581D502
:10BF8E00CDA145E1CD673B2BCDFA36C2A432E122DD
:10BF9E002581E1222781E1222381E1C9E52AA180C1
:10BFAE00237CB5E1C01E16C3B832CD7235A73E80D4
:10BFBE00321081B647CD623DC36A3BCD6A3BCDEEB2
:10BFCE0046CDFE3FCD834101DE41C57E2323E5CD27
:10BFDE005940E14E2346CDF23FE56FCD7641D1C9B2
:10BFEE00CD5940210481E5772323732372E1C92BB8
:10BFFE00062250E50EFF237E0CB7CA1440BACA14AF
:10C00E0040B8C20540FE22CCFA36E323EB79CDF2DE
:10C01E003F1104812AF6802229813E0132F280CD21
:10C02E00A445CD6C3522F680E17EC01E1EC3B8320B
:10C03E0023CDFE3FCD8341CD98451C1DC80ACD7D35
:10C04E0035FE0DCCAC3903C34A40B70EF1F52A9F2D
:10C05E0080EB2A08812F4F06FF0923CD6C35DA7746
:10C06E004022088123EBF1C9F11E1ACAB832BFF57E
:10C07E00015B40C52AF480220881210000E52A9F39
:10C08E0080E521F880EB2AF680EBCD6C35019440EB
:10C09E00C2E8402A1B81EB2A1D81EBCD6C35CABB51
:10C0AE00407E2323B7CDEB40C3A540C1EB2A1F81B1
:10C0BE00EBCD6C35CA1141CD98457BE509B7F2BA87
:10C0CE0040220A81E14E0600090923EB2A0A81EB80
:10C0DE00CD6C35CABB4001DA40C5F6807E23235EA7
:10C0EE00235623F0B7C8444D2A0881CD6C356069BC
:10C0FE00D8E1E3CD6C35E3E56069D0C1F1F1E5D56A
:10C10E00C5C9D1E17DB4C82B462B4EE52B2B6E262F
:10C11E00000950592B444D2A0881CD7332E1712309
:10C12E007069602BC38640C5E52A2981E3CDF03BBB
:10C13E00E3CD6B3B7EE52A2981E5861E1CDAB832FB
:10C14E00CDEF3FD1CD8741E3CD8641E52A0681EB88
:10C15E00CD6D41CD6D4121853BE3E5C32040E1E34B
:10C16E007E23234E23466F2C2DC80A120313C3774A
:10C17E0041CD6B3B2A2981EBCDA141EBC0D5505966
:10C18E001B4E2A0881CD6C35C29F4147092208817A
:10C19E00E1C92AF6802B462B4E2B2BCD6C35C022B7
:10C1AE00F680C901313FC5CD8041AF5732F2807E56
:10C1BE00B7C901313FC5CDB641CAC13723235E236E
:10C1CE00561AC93E01CDEF3FCDCB422A068173C12F
:10C1DE00C32040CD7B42AFE34FE57EB8DAF0417825
:10C1EE00110E00C5CD5940C1E1E5232346236668F3
:10C1FE00060009444DCDF23F6FCD7641D1CD87413A
:10C20E00C32040CD7B42D1D51A90C3E641EB7ECD03
:10C21E0080420405CAC137C51EFFFE29CA3542CD6C
:10C22E0072352CCDC842CD723529F1E301E841C5F6
:10C23E003DBE0600D04F7E91BB47D843C9CDB64117
:10C24E00CA69435F23237E23666FE5194672E3C5F1
:10C25E007EFE24C26A42CD934A180DFE25C2744258
:10C26E00CD034B1803CD5046C1E170C9EBCD7235ED
:10C27E0029C1D1C543C9CDCB42328480CD8380C381
:10C28E00313FCDB542C34B80CDB542F51E002BCD0F
:10C29E00FA36CAAB42CD72352CCDC842C1CD8380A1
:10C2AE00ABA0CAAC42C9CDC842328480324C80CDDC
:10C2BE0072352CC3C842CDFA36CD673BCDA6377A40
:10C2CE00B7C2C1372BCDFA367BC9CDAC371AC331C5
:10C2DE003FCD673BCDAC37D5CD72352CCDC842D1D5
:10C2EE0012C921C747CD9845C30343CD984521C1F7
:10C2FE00D1CD724578B7C83A2C81B7CA8A4590D24B
:10C30E001D432F3CEBCD7A45EBCD8A45C1D1FE19AD
:10C31E00D0F5CDAF4567F1CDC843B4212981F243A5
:10C32E0043CDA843D289432334CAB3322E01CDDE86
:10C33E0043C38943AF90477E9B5F237E9A57237EEC
:10C34E00994FDCB4436863AF4779B7C276434A541A
:10C35E00656F78D608FEE0C25743AF322C81C9050F
:10C36E00297A1757798F4FF26E43785C45B7CA8991
:10C37E0043212C818677D26943C878212C81B7FC62
:10C38E009B4346237EE680A94FC38A451CC014C03A
:10C39E000CC00E8034C0C3B3327E835F237E8A57B7
:10C3AE00237E894FC9212D817E2F77AF6F90477DD8
:10C3BE009B5F7D9A577D994FC90600D608DAD74301
:10C3CE00435A510E00C3CA43C6096FAF2DC8791F19
:10C3DE004F7A1F577B1F5F781F47C3DA4300000059
:10C3EE008103AA561980F122768045AA3882CD495A
:10C3FE0045B7EAC137212C817E01358011F30490B7
:10C40E00F570D5C5CD0343C1D104CD9F4421EC4376
:10C41E00CDFA4221F043CD9148018080110000CD2C
:10C42E000343F1CDC44601318011187221C1D1CD23
:10C43E004945C82E00CD074579323B81EB223C8120
:10C44E000100005058215443E5216044E5E52129BF
:10C45E00817E23B7CA8C44E52E081F6779D27A44B1
:10C46E00E52A3C8119EBE13A3B81891F4F7A1F5730
:10C47E007B1F5F781F472D7CC26944E1C9435A5127
:10C48E004FC9CD7A45012084110000CD8A45C1D116
:10C49E00CD4945CAA7322EFFCD074534342B7E3207
:10C4AE0057802B7E3253802B7E324F8041EBAF4F25
:10C4BE00575F325A80E5C57DCD4E80DE003FD2D724
:10C4CE0044325A80F1F137D2C1E1793C3D1FFA8AEC
:10C4DE0043177B175F7A175779174F297817473A03
:10C4EE005A8017325A8079B2B3C2C444E5212C81E6
:10C4FE0035E1C2C444C3B33278B7CA2B457D212C73
:10C50E0081AE80471FA878F22A45C68077CA8A4432
:10C51E00CDAF45772BC9CD49452FE1B7E1F2694340
:10C52E00C3B332CD954578B7C8C602DAB33247CD1C
:10C53E000343212C8134C0C3B3323A2C81B7C83A9D
:10C54E002B81FE2F179FC03CC9CD4945068811008F
:10C55E0000212C814F70060023368017C35143CD26
:10C56E004945F0212B817EEE8077C9EB2A2981E3A4
:10C57E00E52A2B81E3E5EBC9CD9845EB22298160B5
:10C58E0069222B81EBC92129815E2356234E234636
:10C59E0023C911298106041A77132305C2A645C99A
:10C5AE00212B817E07371F773F1F2323777907378C
:10C5BE001F4F1FAEC978B7CA4945215245E5CD492F
:10C5CE004579C8212B81AE79F8CDDE451FA9C92347
:10C5DE0078BEC02B79BEC02B7ABEC02B7B96C0E135
:10C5EE00E1C9474F575FB7C8E5CD9545CDAF45AECD
:10C5FE0067FC15463E9890CDC8437C17DC9B4306DE
:10C60E0000DCB443E1C91B7AA33CC00BC9212C81C9
:10C61E007EFE983A2981D07ECDF14536987BF5790C
:10C62E0017CD5143F1C921000078B1C83E1029DA67
:10C63E00753EEB29EBD24B4609DA753E3DC23D46BF
:10C64E00C9FE2DF5CA5C46FE2BCA5C462BCD69434E
:10C65E0047575F2F4FCDFA36DAAD46FE2ECA8846C3
:10C66E00FE45C28C46CDFA36CDA03CCDFA36DACF99
:10C67E004614C28C46AF935F0C0CCA6446E57B90A1
:10C68E00F4A546F29B46F5CD9144F13CC28F46D1BE
:10C69E00F1CC7245EBC9C8F5CD3245F13DC9D55740
:10C6AE00788947C5E5D5CD3245F1D630CDC446E1C2
:10C6BE00C1D1C36446CD7A45CD5B45C1D1C30343D9
:10C6CE007B0707830786D6305FC37A46E5213C3267
:10C6DE00CD4040E1EBAF0698CD6045213F40E521CE
:10C6EE002E81E5CD49453620F2FC46362D233630D7
:10C6FE00CAB247E5FC7245AFF5CDB847014391117B
:10C70E00F84FCDC445B7E22947F1CDA646F5C30B88
:10C71E0047CD9144F13CF5CDB847CDF1423CCDF13A
:10C72E0045CD8A45010603F1813CFA4547FE08D204
:10C73E0045473C473E023D3DE1F511CB4705C2560C
:10C74E0047362E2336302305362ECC9F45C5E5D5EC
:10C75E00CD9545E1062F047B965F237A9E5723796C
:10C76E009E4F2B2BD26547CDA84323CD8A45EBE1B7
:10C77E007023C10DC2564705CA96472B7EFE30CA9E
:10C78E008A47FE2EC49F45F1CAB547364523362B40
:10C79E00F2A647362D2F3C062F04D60AD2A847C63E
:10C7AE003A237023772371E1C901749411F723CDD5
:10C7BE00C445B7E1E22047E900000080A0860110E1
:10C7CE002700E803006400000A0000010000217247
:10C7DE0045E3E9CD7A4521C747CD8745C1D1CD493E
:10C7EE004578CA3048F2FB47B7CAA732B7CA6A4380
:10C7FE00D5C579F67FCD9545F21848D5C5CD1C46E1
:10C80E00C1D1F5CDC445E17C1FE1222B81E1222966
:10C81E0081DCDD47CC7245D5C5CDFD43C1D1CD3EC2
:10C82E0044CD7A45013881113BAACD3E443A2C8144
:10C83E00FE88D22545CD1C46C680C602DA2545F5B2
:10C84E0021EC43CDF442CD3544F1C1D1F5CD0043B9
:10C85E00CD7245217048CDA048110000C14AC33E9B
:10C86E004408402E9474704F2E776E02887AE6A09C
:10C87E002A7C50AAAA7EFFFF7F7F000080810000E5
:10C88E000081CD7A45113C44D5E5CD9545CD3E444C
:10C89E00E1CD7A457E23CD874506F1C1D13DC8D580
:10C8AE00C5F5E5CD3E44E1CD9845E5CD0343E1C365
:10C8BE00A948CD4945215E80FA2249217F80CD8746
:10C8CE0045215E80C886E6070600772387874F09D5
:10C8DE00CD9845CD3E443A5D803CE6030600FE0110
:10C8EE0088325D8021264987874F09CDF442CD9548
:10C8FE00457B59EE4F4F36802B463680215C803477
:10C90E007ED6ABC21949770C151CCD5443217F80BE
:10C91E00C3A145772B772B77C3FD4868B14668993D
:10C92E00E9926910D17568218049CDF442CD7A45DE
:10C93E0001498311DB0FCD8A45C1D1CD9F44CD7AFC
:10C94E0045CD1C46C1D1CD0043218449CDFA42CDFF
:10C95E00494537F26C49CDF142CD4945B7F5F472F0
:10C96E0045218449CDF442F1D47245218849C391C1
:10C97E0048DB0F49810000007F05BAD71E8664266A
:10C98E00998758342387E05DA586DA0F4983CD7ADF
:10C99E0045CD3C49C1E1CD7A45EBCD8A45CD3649F1
:10C9AE00C39D44CD4945FCDD47FC72453A2C81FEC2
:10C9BE0081DACF490100815159CD9F4421FA42E5D8
:10C9CE0021D949CD9148218049C9094AD73B7802DE
:10C9DE006E847BFEC12F7C74319A7D843D5A7DC856
:10C9EE007F917EE4BB4C7E6CAAAA7F00000081C9B9
:10C9FE00D7C93E0CCFC9CDC8427B328780C9CD671F
:10CA0E003BCDAC37ED538B80ED538D80C9CDAC371C
:10CA1E00D5E146237EC3223FCD673BCDAC37D5CD86
:10CA2E0072352CCD673BCDAC37E3732372E1C9CDA4
:10CA3E006A3BCDAC37C5212E817AFE00280CCD760F
:10CA4E004A78FE302802702371237BCD764A7AFE17
:10CA5E0000200578FE30280270237123AF772377EC
:10CA6E00C1212E81C3D03F47E60FFE0A3802C6070A
:10CA7E00C6304F780F0F0F0FE60FFE0A3802C607AB
:10CA8E00C63047C9EB210000CDAC4ADACC4A1805B6
:10CA9E00CDAC4A381F29292929B56F18F3131AFE70
:10CAAE0020CAAC4AD630D8FE0A3805D607FE0AD8B8
:10CABE00FE103FC9EB7A4BE5CD213FE1C91E26C3DF
:10CACE00B832CD6A3BCDAC37C5212E810611057823
:10CADE00FE012808CB13CB1230F41804CB13CB1263
:10CAEE003E30CE0077230520F3AF772377C1212E7A
:10CAFE0081C3D03FEB210000CD204BDA2E4BD63038
:10CB0E0029B56FCD204B30F6EB7A4BE5CD213FE1C9
:10CB1E00C9131AFE20CA204BFE30D8FE323FC91E62
:10CB2E0028C3B8320E01F7C93E00329280C3142FCB
:10CB3E00F5A0C1B83E00C9CD7D35C3A239FFFFFFB8
:10CB4E00FFFFFFFFFFFFFFFFFFFFFFFFFFFFFFFFE7
:10CB5E00FFFFFFFFFFFFFFFFFFFFFFFFFFFFFFFFD7
:10CB6E00FFFFFFFFFFFFFFFFFFFFFFFFFFFFFFFFC7
:10CB7E00FFFFFFFFFFFFFFFFFFFFFFFFFFFFFFFFB7
:10CB8E00FFFFFFFFFFFFFFFFFFFFFFFFFFFFFFFFA7
:10CB9E00FFFFFFFFFFFFFFFFFFFFFFFFFFFFFFFF97
:10CBAE00FFFFFFFFFFFFFFFFFFFFFFFFFFFFFFFF87
:10CBBE00FFFFFFFFFFFFFFFFFFFFFFFFFFFFFFFF77
:10CBCE00FFFFFFFFFFFFFFFFFFFFFFFFFFFFFFFF67
:10CBDE00FFFFFFFFFFFFFFFFFFFFFFFFFFFFFFFF57
:10CBEE00FFFFFFFFFFFFFFFFFFFFFFFFFFFFFFFF47
:10CBFE00FFC3064CC3274C3180FE211480220080D7
:10CC0E00CDB353116C5397CDA55311815397CDA529
:10CC1E005311965397CDA5533180FECDB353115872
:10CC2E005397CDA553213B4C2202802100002208B0
:10CC3E00802204803E3ECDA34CD51137FDCDDA5275
:10CC4E00CD7F4D7CB5C1CA384D1B7C121B7D12C5E4
:10CC5E00D57993F5CDF44CD5C27A4CD5CD124DC1C4
:10CC6E002A0080CD1E4D6069220080C12A0080F10D
:10CC7E00E5FE03CA274C856F3E008C671100FDCD83
:10CC8E003B52D22953220080D1CD294DD1E1CD1E68
:10CC9E004DC3434CCDB5531137FDCDC153CAA94C2D
:10CCAE00FE0ACAA94CB7CAA94CFE08CAD34CFE1834
:10CCBE00CAEC4CCDB553CDCA531213FE0DC87BFE34
:10CCCE0087C2A94C7BFE37CAA94C1B3E08CDB55373
:10CCDE003E20CDB5533E08CDB553C3A94CCDB3536D
:10CCEE003E40C3A34C7CB7FA2253111480E52A00B0
:10CCFE00802BCD3B52E1D81A9547131A9CDA134D6F
:10CD0E001BB0C913131AFE0DC2134D13C3FC4CCD29
:10CD1E003B52C81A021303C31E4D7892C2314D798D
:10CD2E0093C81B2B1A77C3294D21864DCD7F4DD528
:10CD3E001A13FE2ECA5C4D23BECA3F4D3E7F1BBE4C
:10CD4E00DA634D23BED2524D23D1C33E4D3E7F23D7
:10CD5E00BED25E4D7E236EE67F67F1E9E3CD7F4D59
:10CD6E00BE23CA7B4DC54E060009C11B1323E3C962
:10CD7E001AFE20C013C37F4D4C495354CF50525509
:10CD8E004ED0CD4E4557CDE3425945CDE04E455898
:10CD9E0054CEA24C4554D09B494E505554D03F4989
:10CDAE0046CF3C474F544FD0BC474F535542CDF220
:10CDBE0052455455524ECE1452454DCF44464F52C5
:10CDCE00CE2F5052494E54CF7D53544F50CDECD0B0
:10CDDE00930E01F7CD0551211480220080CD05510F
:10CDEE00C3274CCDF74ECD0E51D5CDF44CC22353A7
:10CDFE002A0280E52A0480E52100002208803922DB
:10CE0E000480C3DC50CD05512A04807CB5CA1B5367
:10CE1E00F9E1220480E1220280D1CD204FC3EC50F3
:10CE2E00CDF74ECDA6502B220880213E4EC33B4D52
:10CE3E00544FCE45D31BCD0E51220C8021504EC3E4
:10CE4E003B4D53544550CE59CE5FCD0E51C3624E1D
:10CE5E00210100220A802A0280220E80EB221080FD
:10CE6E00010A002A0880EB6068393E097E23B6CAA3
:10CE7E009B4E7E2BBAC27A4E7EBBC27A4EEB2100FF
:10CE8E000039444D210A0019CD294DF92A1080EBA5
:10CE9E00C3EC50CDA652DA1B53220680D5EB2A08DE
:10CEAE00807CB5CA1C53CD3B52CAC54ED1CD204F46
:10CEBE002A0680C3AB4E5E23562A0A80E519EB2A5A
:10CECE0008807323722A0C80F1B7F2DD4EEBCD355C
:10CEDE0052D1DAF14E2A0E802202802A1080EBC344
:10CEEE00EC50CD204FC3EC5021A5FDCD2952C139B8
:10CEFE00D229532A08807CB5CA1D4F2A1080E52AF4
:10CF0E000E80E52A0C80E52A0A80E52A0880E5C510
:10CF1E00C9C1E12208807CB5CA3A4FE1220A80E1FC
:10CF2E00220C80E1220E80E1221080C5C9CD0E5167
:10CF3E007CB5C2E350210000CD144DD2DC50C32786
:10CF4E004CCDDA52CD0551CDF44CDA274CCD684F8D
:10CF5E00CDC153CDFC4CC3594F1A6F131A67130E24
:10CF6E0004CDF34F3E20CDB55397CDA553C90E0634
:10CF7E00CD6B4D3B06CDB353C3E350CD6B4D0D067C
:10CF8E00CDB353C3D350CD6B4D2307CD0E514DC3EF
:10CF9E00A74FCDC34FC3B84FCD6B4D2C06CDF2501E
:10CFAE00C3954FCDB353C3EC50CD0E51C5CDF34FFA
:10CFBE00C1C3A74FCD6B4D22053E22C3D44FCD6BBF
:10CFCE004D270E3E27CDA553FE0DE1CAD350C3EE1D
:10CFDE004FCD6B4D5F0D3E8DCDB553CDB553E1238A
:10CFEE002323E9C9D5110A00D5420DCD2652F203ED
:10CFFE0050062D0DC5CD095278B1CA1450E32DE55A
:10D00E006069C30450C10D79B7FA23503E20CDB5E7
:10D01E0053C3155078CDB5535D7BFE0AD1C8C630CB
:10D02E00CDB553C328502A0680F9E1220280D1D112
:10D03E00D5CDC34FC34F50CDA652DA8A50C36150DF
:10D04E00D5CDA652DA1B531A4F9712D1CDA55379CF
:10D05E001B12D5EB2A0280E5213F502202802100CF
:10D06E000039220680D53E3ACDA34C1137FDCD0EA8
:10D07E0051D1EB732372E1220280D1F1CD6B4D2C95
:10D08E005CC33F50CDFB50FE0DCAEC50CDA650CD2B
:10D09E006B4D2C49C39B50CDA652DA1B53E5CD6B7D
:10D0AE004D3D3DCD0E51444DE1712370C9CD0E5114
:10D0BE00D5CD0551CDF44CC22353F1C3DC50CD0573
:10D0CE0051111480210000CDFC4CDA274CEB2202CA
:10D0DE0080EB1313CDC153219B4DC33B4DCDF2506D
:10D0EE00C31B53CD6B4D3B04F1C3E350CD6B4D0DC4
:10D0FE0004F1C3D350C9CD7F4DFE0DC8C31B53CD14
:10D10E006D51E5211751C33B4D3E3DD12F3C3ED1D4
:10D11E00353ED13B3DD14A3C3DD1423CD150D1561A
:10D12E00CD5851D86FC9CD5851C86FC9CD5851C8B7
:10D13E00D86FC9CD58516FC8D86CC9CD5851C06F72
:10D14E00C9CD5851D06FC9E1C979E1C1E5C54FCDFF
:10D15E006D51EBE3CD3552D12100003E01C9CD6BAF
:10D16E004D2D06210000C39151CD6B4D2B00CDA945
:10D17E0051CD6B4D2B07E5CDA951C39851CD6B4DBC
:10D18E002D8DE5CDA951CD2952EBE37CAA7A19D18B
:10D19E00FA8051ACF28051C32253CD4152CD6B4D2A
:10D1AE002A2BE5CD41520600CD2652EBE3CD265279
:10D1BE007CB7CACA517AB2EBC223537D2E00B7CACE
:10D1CE00FB5119DA23533DC2D151C3FB51CD6B4DE7
:10D1DE002F3DE5CD41520600CD2652EBE3CD265232
:10D1EE007AB3CA2353C5CD09526069C1D17CB7FA4F
:10D1FE00225378B7FC2952C3AC51E56C2600CD14EE
:10D20E0052417DE1670EFF0CCD1F52D2165219C945
:10D21E007D936F7C9A67C97CB7F07C2F677D2F6FEB
:10D22E002378EE8047C97CAAF23B52EB7CBAC07DD4
:10D23E00BBC9214652C33B4D524E44D25941425373
:10D24E00D28253495A45D28ED29BCD0D537CB7FA1A
:10D25E002253B5CA2253D5E52A12807CE607671100
:10D26E00004C195E2356221280E1EBC5CD0952C146
:10D27E00D123C9CD0D53CD26527CB4FA2253C92ADF
:10D28E000080D5EB2100FDCD1F52D1C9CDA652DABB
:10D29E0007537E23666FC9CD7F4DD640D8C2CA5282
:10D2AE0013CD0D5329DA2253D5EBCD8E52CD3B52F1
:10D2BE00DA2A532100FDCD1F52D1C9FE1B3FD813D0
:10D2CE002100FD07856F3E008C67C921000044CD0B
:10D2DE007F4DFE30D8FE3AD03EF0A4C2225304C594
:10D2EE00444D292909291A13E60F856F3E008C67D4
:10D2FE00C11AFA2253C3E152CDDA5278B7C0CD6BC0
:10D30E004D2809CD0E51CD6B4D2901C9D511605354
:10D31E00C32D53D5115B53C32D53D511665397CDE2
:10D32E00A553D11AF597122A0280E57E23B6D1CAEB
:10D33E00274C7EB7FA3550CD684F1BF1123E3FCDCC
:10D34E00B55397CDA553C3274C4F4B0D484F573F61
:10D35E000D574841543F0D534F5252590D50414CA9
:10D36E004F20414C544F2054494E5920424153496D
:10D37E00430D504F525441424C45205A383020569E
:10D38E00455253494F4E0D5342435A38302045446F
:10D39E004954494F4E0D471A13B8C8CDB553FE0D1B
:10D3AE00C2A653C93E0DCFFE0DC03E0ACDB5533EAB
:10D3BE000DC9DFC8D7FE1BC0C3274CFE61D8FE7B4C
:10D3CE00D0E6DFC9FFFFFFFFFFFFFFFFFFFFFFFFFD
:10D3DE00FFFFFFFFFFFFFFFFFFFFFFFFFFFFFFFF4F
:10D3EE00FFFFFFFFFFFFFFFFFFFFFFFFFFFFFFFF3F
:10D3FE00FFC39E5AC35054C3955AC3D35AC3D55A6A
:10D40E00C3BC55C3A856C3B756C3D456C33A57C3A5
:10D41E003958C34558C36258C39158C38D59C3BABE
:10D42E0059C3D159C35B5AC3665AC3675AC38B5A81
:10D43E00210081227E8022508036FF21B65ACDBC3B
:10D44E005521BFFE22588031008121C48022888060
:10D45E0021AD5ACDBC55CDDB58D2B454224280CD2D
:10D46E003E56CA9154CDF054FA9154224280232351
:10D47E007EFE20C29754CD2556C29D54237EA7C34F
:10D48E007754CD8B5AC35654CD0555C377542A4283
:10D49E0080227280CDF654FA91540E72CD9B55CAED
:10D4AE007454C37D54227480EB224A80EB7EFE2F8F
:10D4BE00C20B55CDF054CD8B5A7EA7FA5654CDD310
:10D4CE0054C3C55422428056235EE50E05CDD15974
:10D4DE00E123C3BC552A428023237EB7C2E85423DE
:10D4EE00C92A7E802242807EA7F8EB2A4A80EB234F
:10D4FE007E932B7E9AD0CDE454C3F3542A4A807A7D
:10D50E00A7FA9154B3CAC2542A50807E3CC2915499
:10D51E00CDF054FA4A5546236E600E4ACD9B55C245
:10D52E004A55CDE454EB2A4280EB0E50CD9B557EEE
:10D53E00122313C23955EB2B2250802A74801E03FE
:10D54E007EB7CA95551C237EB7C25455572A5080B4
:10D55E0019E5EB2A5880CD3958D291542A5080EBD8
:10D56E00E1225080EB232B7E121B0E42CD9B55C227
:10D57E007555EB2A4A80EB722373EB2A74807E2357
:10D58E001312B7C28D55310081C3655406800ABD92
:10D59E00C0030ABCC92187803600E5210A00CD9957
:10D5AE00587DC630E12B777BB2C2A955C9AF477EF5
:10D5BE0023B8CACA55CD0954C3BE55CD0C54D0CDCF
:10D5CE00D15AFE1BCA9154FE20C0C3D15AFE20CAA6
:10D5DE0025565797324A80324B80237E2B5FE6DFEB
:10D5EE007AC21156FE5DC2FE55CD2E59C33B56FE74
:10D5FE0040C211562322468097110000CD4456C3D7
:10D60E003B56FE22C21D5623CDBD55C33E56FE2FA0
:10D61E00C22956CD8B5A23C33E56227280CD6156F7
:10D62E00CDFE58CDCA552A4A807CB5C02A46807E8A
:10D63E00A7C2DC55C9EB226A80EBCD5859216A800E
:10D64E00C36159D523CD6D56CD4456D1C93E3DC388
:10D65E00285A7E23E6DFCA5C56FE1DC26156CD8F68
:10D66E00567EE6DFCA8956FE09CA8D56FE0CCA5290
:10D67E0056CDB1572A5A80C37056224680C923C947
:10D68E00CDDE58D0FE2DC29F5623CD8F56C3915856
:10D69E00FE2BC2AE5623CD8F567AA7FA9158C9FEED
:10D6AE0023C2BC5623CD8F567AA7C3D357FE25C2AD
:10D6BE00CB5623CD8F56EB2A4E80EBC9FE27C2F2F6
:10D6CE005623CD8F56E5D52A528011093DCD4558AA
:10D6DE0013EB225280EBE15A1600CD45585A160034
:10D6EE00E113C9FE22C2FE561600235E2323C9FE95
:10D6FE0024C235571600CD1057DA2657CD06545F83
:10D70E00C9237ED630DA2457FE0AD8D607FE0ADAA7
:10D71E002457FE10C93FC95FCD1057D0EB292929D8
:10D72E0029EB83C32657FE3FC24457E5CDE15ACDC0
:10D73E006D56E123C9FE28C24D5723C36D56CD97B2
:10D74E0057FE3ACA5E57CD78575E2356C36457CDFF
:10D75E00685716005E2A7080C9CD86573A76808348
:10D76E005F3A77808A57C3AA57FE28C2A157CD8643
:10D77E0057EB29EBC36B57CDA1574E236669227623
:10D78E00802A708023C36D565E237EFE4157F29829
:10D79E0057C916807BE63FC602875F227080EB7CFE
:10D7AE00B5C9D556235ED57BD63DCAC0573DC2C13D
:10D7BE005723CD8F56225A80EBD17AFE3DC2E157C8
:10D7CE00D1CD3958C204587BB7C20458110100F6A6
:10D7DE00FFC9FE3CC20A587BFE3DD1CAF857FE3E39
:10D7EE00C2FE57CDD057C32558CD1C58C32558CD92
:10D7FE003958FADB57110000E600C9FE3EC22A581E
:10D80E007BFE3DD1C21C58CDFE57C32558CD39588D
:10D81E00FA0458CDD3577BEE015FC9D1FE2BC2342B
:10D82E0058EB19EBC9FE2DC240587B955F7A9C5779
:10D83E00C9FE2AC25D58D50E10110000E3CDC8589E
:10D84E00E3D25658EB19EB290DC24B58C1C9FE2F26
:10D85E00C2285A06007CB7C27258B5C27B583E2FFA
:10D86E00C3285AF27B5804EBCD9158EB7AB7F28469
:10D87E005805CD9158CD9958224E802A68803E0089
:10D88E00B8C87A2F577B2F5F13C90E000C29D29B75
:10D89E0058CDC958E5210000E3CD39583FDAB358C9
:10D8AE00EB19EBB7E37D176F7C1767E30DCAC5580D
:10D8BE00CDC858C3A858E1EBC9B77C1F677D1F6F51
:10D8CE00C97EFE3A37F0FE3037F83FC9CD835ACDC8
:10D8DE00D058D8EB2100001AD6304F060009444D1F
:10D8EE0013EBCDD0583FD0EB29290929C3E6582A8E
:10D8FE007280D57EFE40C2495923235ECDA157D1F9
:10D90E00CD3859D5CD3C59E1CDFE57C22959CD2E32
:10D91E005906062188807E9077C906FCC322592EAF
:10D92E0046CD35592E42CD3C59732372C94D2A88A6
:10D93E00805E23562322888069C9FE21C26F59D189
:10D94E00EB224A80EBCDAD57C8214280CD615921E3
:10D95E0046805E23562A88802B722B73228880C9BC
:10D96E00FE3BC27F59D1CDAD57C0310081C3975414
:10D97E00FE3EC28759D1EBE9FE2EC29959D15314FE
:10D98E0015C83E20CD0954C38F59FE26C2B4592363
:10D99E007E2BFE3DC2B459D1CDAD57C02A7E80221A
:10D9AE00508036FFC9FE24C2BE59C17BC30954FE46
:10D9BE003FC2F659237E2BFE28C2505A23CD8F56D6
