:0400000085EF00F098
:1000080002410241024102410241024102410241D0
:1000180002410241024102410241024102410241C0
:1000280002410241024102410241024102410241B0
:1000380002410241024102410241024102410241A0
:100048000241024102410241024102410241024190
:100058000241024102410241024102410241024180
:100068000241024102410241024102410241024170
:10007800024102410241024142008D4002410241D7
:100088000241024102410241024102410241024150
:10009800C940DF400241024142000241024102419F
:1000A8000241024102410241024102410241024130
:1000B8000241024102410241024102410241024120
:1000C8000241024102410241024102410241024110
:1000D8000241024102410241024102410241024100
:1000E80042000241024102410241024102410241F1
:1000F80002410241024102410241024102410241E0
:06010800FF00E6EF81F0AC
:10CFFE0000C34000C37FF50000C333FC00000000F7
:10D00E0000C325FC0000000000C32EFC0000000041
:10D01E0000C900000000000000C900000000000070
:10D02E0000C336F50000000000C3C3F50000000089
:10D03E00002103D02201001100D0216000013E2CFE
:10D04E00EDB0C303D0FFFFFFFFFFFFFFFFFFFFFFAA
:10D05E00FFC303D0F33100FF2140002200FF22075F
:10D06E00FF2205FF224EFF2250FF3E493209FFAF3D
:10D07E00210CFF061A772310FC21C0FE2220FF216F
:10D08E0040002222FF06083E2E2163FF772310FC6C
:10D09E00AF770614213AFFAF772310FC3E493234A6
:10D0AE00FF3E4E3233FF2E00652235FFAF3239FF81
:10D0BE00214000223CFF2240FF2244FF2248FF2253
:10D0CE004CFF7E323BFF323FFF3243FF3247FF328F
:10D0DE004BFF217FF9CDFAF3AF326CFF21CBF9CDA7
:10D0EE00FAF3CD5AF4CDE4F4B728EDFE41CA10E8B8
:10D0FE00FE44CA72D5FE47CA5AE2FE53CA1CE3FE6C
:10D10E004CCA92E3FE50CA94E4FE52CA6CE5FE424B
:10D11E00CA48D1FE54CAF2D1FE3F280821E8F9CD03
:10D12E00FAF318B421B6F7CDFAF318ACD5E5CDE382
:10D13E00D0E1D1C9AF474FCDE4F4B7C8CD05D1D8B2
:10D14E00F508F1CD14D1D808E516005F60691944D1
:10D15E004DE1D82318E1B7280AFE30D8FE3A300345
:10D16E00D630C937C9E5C5CB21CB10CB21CB10E1C9
:10D17E0009E5C1CB21CB10E1C93A42FFB728082AF5
:10D18E0044FF3E31CDD8D13A46FFB7CA87D02A48A0
:10D19E00FF3E32CDD8D1C387D023CDE4F4B728D902
:10D1AE000142FFFE31280E0146FFFE322807FE43E4
:10D1BE002833C3CBD00823CDE4F4B7284FFE2CC2BE
:10D1CE00CBD023CDE4F4C5CDF4F4E1DACBD0CD86CB
:10D1DE00D1DACBD0C387D03E0177231A77237323BE
:10D1EE0072B7C937C923CDE4F4B728140142FFFE44
:10D1FE003128080146FFFE32C2CBD0AF02C387D022
:10D20E00AF0142FF020146FF02C387D00AB7CA87A9
:10D21E00D0082A44FFFE3128032A48FFCDD8D1C3B7
:10D22E0087D042502800293A00E5F521D1D1CDFA18
:10D23E00F3F1CD33FC21D5D1CDFAF3E1CD03F4CD0D
:10D24E0043F4C9E52E0026002235FF2A22FF22379D
:10D25E00FFAF3239FFE123CDE4F4CDF4F4D2B8D2EE
:10D26E00CDE4F47EB7CAE1D2FE2CCAC9D2FE502854
:10D27E004EFE4DC2CBD023CDE4F42160D2FE492820
:10D28E00102166D2FE532809B7C2CBD03A34FF180C
:10D29E00E93234FFE52151D2CDFAF3E1CDFAF3C3F1
:10D2AE0087D0544D206D6F64653A3C43414C4C2001
:10D2BE0000494E3E0D0A00534B49503E0D0A0023C5
:10D2CE00CDE4F4B720053A33FF1809FE4FC2CBD098
:10D2DE0023CDE4F421ADD2FE4E280821B2D2FE4673
:10D2EE00C2CBD03233FFE521A3D2CDFAF3E1CDFA92
:10D2FE00F3C387D05450206D6F64653A20004F4EB3
:10D30E000D0A004F46460D0A00ED5337FFCDE4F4EB
:10D31E00B7281FFE2C2803C3CBD023CDE4F4B7CA05
:10D32E00CBD0FE2D2811CDE3D0DACBD0ED4335FF97
:10D33E00181B01010018F523CDE4F4FE31C2CBD049
:10D34E0023CDE4F4B7C2CBD03E013239FF2A37FFEA
:10D35E007E0108002190D4EDB120130E01CD62D4D0
:10D36E00DA21D40E02CD42D4DA21D4C31ED4010563
:10D37E00002198D4EDB120190E012A37FFCD35D4F6
:10D38E00CD6FD4DA21D40E02CD47D4DA21D4C31E08
:10D39E00D4010800219DD4EDB120040E0118130113
:10D3AE00080021A5D4EDB1201A0E013A34FFFE5328
:10D3BE002808CD56D4DA21D40E02CD4CD4DA21D49D
:10D3CE00C31ED4FEC9200B0E01CD62D4DA21D4C304
:10D3DE001ED401080021ADD4EDB1200B0E01CD42BB
:10D3EE00D4DA21D4C31ED4FEED2013237EFE4528AD
:10D3FE0004FE4D20090E01CD62D4387618712A37FD
:10D40E00FF7EFEE9200C2A12FF0E01CD6FD438628A
:10D41E00185DFEDD200B237EFEE920052A1CFF1879
:10D42E00E82A37FF7EFEFD200B237EFEE920052A2B
:10D43E001EFF18D52A37FF7EFE18200C0E01CD35A3
:10D44E00D4CD6FD4382C1827FEC320090E01CD562B
:10D45E00D4381F181AFECDC2B5D40E013A34FFFED1
:10D46E00532807CD56D4380A1805CD4CD43803C3EB
:10D47E0098E2212BD4CDFAF3C387D0FF41647220FA
:10D48E004552520D0A00235E2316FFCB7B20021657
:10D49E000019C92A37FF180A2A37FF18042A37FF3E
:10D4AE00232323CD6FD4C92A37FF235E2356EBCD1A
:10D4BE006FD4C9ED5B20FF1A6F131A67CD6FD4C9F5
:10D4CE0079FE01200D113AFF12223CFF7E323BFF06
:10D4DE00180B113EFF122240FF7E323FFFAFC937BD
:10D4EE00C9C0C8D0D8E0E8F0F81020283038C2CA39
:10D4FE00D2DAE2EAF2FAC4CCD4DCE4ECF4FCC7CF24
:10D50E00D7DFE7EFF7FF011200214ED5EDB1CA29A3
:10D51E00D50108002160D5EDB1CA34D52A37FFFEFA
:10D52E00CB2857FEDD280AFEED2828FEFD2802181E
:10D53E003E237EFECB2859FE212855FE222851FE81
:10D54E002A284DFE362849010A002168D5EDB1285A
:10D55E00291832237EFE432837FE4B2833FE5328EC
:10D56E002FFE5B282BFE732827FE7B2823180B0E1D
:10D57E0001CD42D4DA21D4C31ED40E01CD47D4DA64
:10D58E0021D4C31ED40E01CD4CD4DA21D4C31ED463
:10D59E000E012A37FF23CD4FD4DA21D4C31ED40671
:10D5AE000E161E262E363EC6CEDED6E6EEF6FEDB78
:10D5BE00D30111213122322A3A09192939232BE5B7
:10D5CE00E1E3F9237EFE49CA7BD6CDE4F4CDF4F433
:10D5DE003806ED5300FF1810E52A00FF0180000900
:10D5EE002202FFE17EB7282BCDE4F47EFE2C280D1F
:10D5FE00B7C2CBD0218000192202FF181623CDE42A
:10D60E00F4CDF4F4DACBD0CDE4F4B7C2CBD013ED35
:10D61E005302FFCDC8D5C387D02A00FF3EF0A56FB9
:10D62E00AF3204FFE5CDF5D5E101100009CD2EFC9A
:10D63E00200E3A04FFFE0238EB2A02FF2200FFC939
:10D64E002200FFC325FCCD03F4E521F0F9CDFAF35A
:10D65E00E1DD2177FF0610CD2FD610FB21F3F9CD9A
:10D66E00FAF32177FF06107E23FE203809FE7F3065
:10D67E0005CD33FC18053E2ECD33FC10EAC343F422
:10D68E003E20CD33FC3A04FFB720203A00FFBD20E8
:10D69E00063A01FFBC280F3E20CD33FCCD33FCDD16
:10D6AE00770023DD23C93E013204FF3A04FFFE0159
:10D6BE0020E57EDD7700CD08F423DD233A02FFBDA1
:10D6CE00C03A03FFBCC03E023204FFC923CDE4F4CE
:10D6DE00CDF4F43014CDE4F47EB7201326002E0AD8
:10D6EE007D326FFF226DFF1833ED5370FF18E6FE8B
:10D6FE002CC2CBD023CDE4F4FE5320123E01326F68
:10D70E00FF23CDE3D0DACBD0ED436DFF180ECDF471
:10D71E00F4DACBD0ED536DFFAF326FFFCD2EFC2878
:10D72E0006CD25FCC387D0CD5AD7CD1FD72177FF85
:10D73E00CDFAF33A6FFFB7200E2A6DFFED4B70FF57
:10D74E00ED4230D8C387D02A6DFF2B226DFF7CB5FA
:10D75E0020CAC387D02270FFD5CD5AD7CD1FD7D1BF
:10D76E002177FF012A00EDB0ED5B70FF3A76FFC91D
:10D77E002177FFED5B70FFCDFADECD8ADFCD8ADF3C
:10D78E0006043A76FF4F1A13D55FCD02DFCD8ADF3E
:10D79E00D105280F0D20EFCD8ADFCD8ADFCD8ADFB0
:10D7AE000520F4CD8ADFED5370FFC93E013276FFBE
:10D7BE001159E0CD1EDF2192FFCD4ADF2A70FF7E88
:10D7CE00010D00219DDFEDB1201221ACE1CDA0DED7
:10D7DE00C31EDFE6380F0F0F4F0600C9FE0A2819C9
:10D7EE00FE1A2823FE022824FE122829FEF9202ADA
:10D7FE00111BFCCD71DFC344DF11DAFBD5CD6EDF1B
:10D80E00D1CD58DFC34ADF11E1FB18F011DAFBCDA1
:10D81E0060DFC339DF11E1FB18F5FE40DA61D8FE97
:10D82E00803028FE762006115CE0C31EDFCD82D745
:10D83E00CD9DDE2192FFCD71DFED5B70FF1AE60705
:10D84E004F0600E5CD9DDEE1C347DFFE883008CDF3
:10D85E001BDFCD6EDF18E2FE90300B1165E0CD1EA2
:10D86E00DFCD6EDF18D3FE9830081169E0CD1EDFD4
:10D87E0018C7FEA0300B116DE0CD1EDFCD6EDF1888
:10D88E00B8FEA830081171E0CD1EDF18ACFEB03026
:10D89E00081175E0CD1EDF18A0FEB830081179E032
:10D8AE00CD1EDF1894FEC0D2DDD8117CE0CD1EDF78
:10D8BE00188701080021AADFEDB1200EF5117FE0D7
:10D8CE00CD1EDFF1CD82D7C3F2D701080021B2DF22
:10D8DE00EDB1200AF51183E0CD1EDFF118E601044B
:10D8EE000021BADFEDB1200F117FE0CD1EDF219CAC
:10D8FE00E1CD94DEC34ADF01040021BEDFEDB1208D
:10D90E000F1183E0CD1EDF219CE1CD94DEC34ADFF3
:10D91E0001040021C2DFEDB12046CD1BDF11E8FB73
:10D92E00CD71DFE5219CE1CDA0DEE1C347DF01042F
:10D93E000021C6DFEDB1200F1187E0CD1EDF21A43F
:10D94E00E1CD94DEC34ADF01040021CADFEDB12030
:10D95E000F118BE0CD1EDF21A4E1CD94DEC34ADF93
:10D96E00FE082817FEE32821FEEB202511E1FBCD52
:10D97E0071DFCD44DF1190E0C31EDF113AE0CD71AF
:10D98E00DF113DE0CD47DF18EC111BFCCD60DF1839
:10D99E00E1FEE9200F1145E0CD1EDF11E8FBCD556C
:10D9AE00DFC34ADF0108002190D4EDB1200F1141F1
:10D9BE00E0CD1EDF2184E1CD94DEC34ADF010800F5
:10D9CE0021ADD4EDB120171155E0CD1EDF792FCB4F
:10D9DE0027CB27CB27E6385F2192FFC3A9DEF53E82
:10D9EE00023276FFF1010800214ED5EDB12016CDA1
:10D9FE0082D7CD9DDECD71DFED5B70FF131A5FCD4B
:10DA0E00ECDEC34ADF010A002156D5EDB1C208DAB9
:10DA1E00C521C6E1CDA0DECD1EDFC179FE012814E1
:10DA2E00B7281AFE073803CD6EDFED5B70FF131AB1
:10DA3E005FC3A9DECD6EDFCDF8D9C34ADF2192FFD9
:10DA4E00CDF8D9CD96DFC339DFCD81DFED5B70FF29
:10DA5E00131A5FCDECDEC385DFFE102005114BE0FF
:10DA6E001807FE18200C1148E0CD1EDF2192FFC3CF
:10DA7E00CDDE0104002199D4EDB120121148E0CD84
:10DA8E001EDF2194E1CD94DECD96DFC3CDDEF53ED3
:10DA9E00033276FFF10104002160D5EDB1C25EDAEA
:10DAAE0021DAE1CDA0DECD71DFCD86DAC3AFDEFEA9
:10DABE00222812FE322814FE2A2826FE3AC29FDAA7
:10DACE00CD6EDF1822CD80DAC344DFCD80DAC339C4
:10DADE00DFCD86DAC3B5DEE52A70FF235E2356E17D
:10DAEE00C911E8FBCD71DFCD86DACDC4DEC34ADFC6
:10DAFE00FEC320081145E0CD1EDF18ADFECD200877
:10DB0E001150E0CD1EDF18A1010800219DD4EDB10A
:10DB1E0020111145E0CD1EDF2184E1CD94DECD969E
:10DB2E00DF188601080021A5D4EDB120051150E0C3
:10DB3E0018E32A70FF23F53E023276FFF1FECBC2C8
:10DB4E00A7DB7E2192FFFE08DA30DBFE10DA39DB2E
:10DB5E00FE18DA42DBFE20DA4BDBFE28DA54DBFE5F
:10DB6E0030DA5DDBFE38DA81DBFE40DA66DBFE8022
:10DB7E00DA6FDBFEC0DA78DBCD87DB114FE1C31E37
:10DB8E00DFCD8CDB11CAE0C31EDFCD8CDB11CEE006
:10DB9E00C31EDFCD8CDB11D2E0C31EDFCD8CDB11BB
:10DBAE00D5E0C31EDFCD8CDB11D8E0C31EDFCD8CDC
:10DBBE00DB11DCE0C31EDFCD8CDB11E0E0C31EDF2A
:10DBCE00CD87DB11E4E0C31EDFCD87DB11E8E0C3B8
:10DBDE001EDF1153E1C31EDFF5CD99DBF1E6074FD2
:10DBEE000600E5CD9DDEE1C347DFE6380F0F0F4798
:10DBFE003E30B07723C396DFFEDDC24DDD1115FC3E
:10DC0E00ED5372FF11F6E1ED5374FF7EFEE3CA0190
:10DC1E00DCFEE9CAEFDBFEF9CA10DC010400216864
:10DC2E00D5EDB1CA19DC010400216CD5EDB1C22EBF
:10DC3E00DC21EEE1CDA0DECD1EDF2192FFC33EDF63
:10DC4E00ED5B72FFD51145E0CD1EDFD1CD55DFC3A3
:10DC5E004ADF1190E0CD1EDF111BFCCD60DFC33E0D
:10DC6E00DF111BFCCD71DFC33EDFCD1BDFED5B7221
:10DC7E00FFCD71DFE52A74FFCDA0DEE1C347DFF5EE
:10DC8E003E033276FFF1010E0021CEDFEDB1CA6DFB
:10DC9E00DCFE86CA98DCFE8ECAA3DCFE9ECAA8DC19
:10DCAE0001070021DCDFEDB1C2ADDC2106E2CDA023
:10DCBE00DECD1EDFED5B72FF2192FFC364DE79FEC7
:10DCCE0007D285DCED5B72FFCD5BDEE52114E2CD84
:10DCDE00A0DEE1C347DFD6074F2114E2CDA0DECD93
:10DCEE0071DFED5B72FFC364DE1161E0CD1EDFCD2F
:10DCFE006EDF18EE1165E018F3116DE018EEF53ECB
:10DD0E00043276FFF1FE21CAD3DCFE22CAE0DCFE2D
:10DD1E002ACAE9DCFE36C2F9DCED5B72FFCD5BDEB2
:10DD2E005AC3A9DEED5B72FFCD71DFCD89DEC3AFC5
:10DD3E00DECD89DECDB5DEC33EDFED5B72FFCD718C
:10DD4E00DFCD89DECDC4DEC34ADFFECBC281DBCDA3
:10DD5E0089DE7A01070021E3DFEDB1C219DD214C26
:10DD6E00E2CDA0DECD1EDFC363DC01180021EADFA9
:10DD7E00EDB1C281DBFE80DA3DDDFEC0DA45DD119C
:10DD8E004FE1CD1EDF2192FFCD99DBC391DC11E473
:10DD9E00E0CD1EDF18EF11E8E0CD1EDF18E7FEED37
:10DDAE00C24ADE7E0138002102E0EDB1C281DB798C
:10DDBE00FE06DA2BDEFE1BDA1DDEFE1EDA0ADECAD8
:10DDCE00EADDFE1FCAF3DDFE20CAFCDDFE21CA0518
:10DDDE00DEFE26DAD9DDFE2ADAC3DDFE31DAA8DD73
:10DDEE0011C7E0CD1EDF79D6314F2114E2CDA0DE72
:10DDFE00CD71DF1157E1C347DF11C3E0CD1EDF1137
:10DE0E0057E1CD71DF79D62A4FE52114E2CDA0DEA0
:10DE1E00E1C347DF116DE0CD1EDF11E8FBCD71DFF1
:10DE2E0079D6264FE5219CE118E31165E0CD1EDF82
:10DE3E0011E8FBCD71DF79D62218E8CD6EDF112304
:10DE4E00FCC347DFCD6EDF1121FCC347DF1123FC7E
:10DE5E00CD71DFC339DF1121FC18F511F0E0CD1EB5
:10DE6E00DF3E1D91C6302192FF7723C34ADFD606CF
:10DE7E004F06002122E2CDA0DEC31EDF3E04327625
:10DE8E00FFC57921E2E1CDA0DEC179FE03DAEDDC3A
:10DE9E00D5CD89DECDB5DED1C347DF1118FCED53EC
:10DEAE0072FF11FEE1ED5374FFC3BADB2192FFCD79
:10DEBE006ADEC396DFCD6ADEC34ADFCD81DFCD7960
:10DECE00DFCD89DE7BFE80380CED445FCD92DFCD59
:10DEDE00ECDEC385DFCD8EDF18F5E52A70FF232338
:10DEEE005E2356E1C9CDA0DE2192FFC379DF2174F6
:10DEFE00E1CB21CB10095E2356C9CDECDEC34ADF40
:10DF0E00CDDBDEC34ADF2192FFCD81DFCDDBDECD5F
:10DF1E0085DFC396DFCD81DFCDDBDEC385DFE52A6E
:10DF2E0070FFCD35D4EBE1CDDBDE186F7AFEA03875
:10DF3E00043E307723CDFADE3E48C387DF7BFEA05A
:10DF4E0038043E307723CD02DF18ED7ACD0BDF7A21
:10DF5E00CD0FDF7BCD0BDF7BCD0FDFC90F0F0F0F8B
:10DF6E00E60FF630FE3A3870C607186C1161E0F510
:10DF7E00C50608218AFF1AB728067723130518F657
:10DF8E003E2077230520FBC1F1C911D8FB1809EDFE
:10DF9E005B72FF180311E8FBCD79DF3E0D77233E50
:10DFAE000A7723AF77C92192FFCD81DFCD79DF18B4
:10DFBE00252192FFCD81DFCD79DFCD85DF182811A8
:10DFCE00D8FB2192FFCD79DF181D1A77B7C823131E
:10DFDE0018F83E2818023E297723C93E2018F93E2C
:10DFEE002B18F53E2D18F13E2CCD87DF18ED0007CE
:10DFFE000F171F272F373FC9D9F3FB040C141C240E
:10E00E002C343C050D151D252D353D031323330BE7
:10E01E001B2B3B09192939C1D1E1F1C5D5E5F546CF
:10E02E004E565E666E7E7071727374757796A6AE7E
:10E03E00B6BE3435060E161E262E3E464E565E666D
:10E04E006E767E868E969EA6AEB6BEC6CED6DEE622
:10E05E00EEF6FE4048505860687841495159616962
:10E06E0079425262724A5A6A7A474F575F46565EF3
:10E07E0044454D676FA0A1A2A3A8A9AAABB0B1B2A7
:10E08E00B3B8B9BABB4353734B5B7B4146004146B1
:10E09E002700524554004A50004A5200444A4E5AF4
:10E0AE000043414C4C00525354004C440048414CE8
:10E0BE0054004144440041444300535542005342EE
:10E0CE004300414E4400584F52004F5200435000FF
:10E0DE00494E430044454300504F5000505553485D
:10E0EE0000455800455858004E4F5000524C434181
:10E0FE00005252434100524C4100525241004441A1
:10E10E00410043504C0053434600434346004449AC
:10E11E00004549004F555400494E00524C430052A1
:10E12E00524300524C00525200534C410053524144
:10E13E000053524C0042495400524553004E45473D
:10E14E0000494D0052524400524C44004C44490088
:10E15E0043504900494E49004F555449004C4444E0
:10E16E000043504400494E44004F555444004C4423
:10E17E004952004350495200494E4952004F5449AA
:10E18E0052004C444452004350445200494E4452B3
:10E19E00004F5444520052455449005245544E00CB
:10E1AE00534554003F3F3F002843290028484C293F
:10E1BE00004E5A005A004E43004300504F00504547
:10E1CE000050004D00DDFBDFFBE4FBE6FBEBFBED5F
:10E1DE00FB5BE1D8FB72E170E16DE16AE168E1653C
:10E1EE00E163E160E168E165E163E160E11BFCE8A8
:10E1FE00FBE1FBDAFB3AE0E8FBE1FBDAFBC0E0BD5A
:10E20E00E093E041E0B9E0B5E0B1E0ADE0A9E0A512
:10E21E00E0A0E09BE097E0C3E0C7E07CE079E0752A
:10E22E00E071E069E06DE065E061E01BFCE8FBE1B8
:10E23E00FBDAFB1BFCE1FBDAFB1BFCE1FBDAFB87E9
:10E24E00E08BE083E07FE01BFC15FCE1FBDAFB1BBF
:10E25E00FC18FCE1FBDAFB83E07FE07CE079E07503
:10E26E00E071E069E0D8FBEDFBEBFBE6FBE4FBDFE6
:10E27E00FBDDFB40E13BE136E131E12CE127E12220
:10E28E00E11DE118E114E110E10CE107E103E1FF0A
:10E29E00E0FBE0F7E0F3E045E14AE1ECE0E0E0DC52
:10E2AE00E0D8E0D5E0D2E0CEE0CAE0ED5B22FFEDB3
:10E2BE005331FF23CDE4F4CDF4F43003B728057ABF
:10E2CE00ED5331FFCDE4F47EB72818FE2CC2CBD02F
:10E2DE0023CDE4F4CDF4F4DACBD0214AFFCD86D1B0
:10E2EE00DACBD02A31FF2222FF3A3AFFB7281A2A78
:10E2FE0037FF2222FF213AFF113CFFCD10E3213ED2
:10E30E00FF1140FFCD10E3181B2142FF1144FFCD3A
:10E31E0010E32146FF1148FFCD10E3214AFF114CB7
:10E32E00FFCD10E32A20FFF92A22FFE5DD2A1CFF8C
:10E33E00FD2A1EFF2A14FFE5ED4B16FFED5B18FFBD
:10E34E002A1AFFD9F1082A0CFFE5ED4B0EFFED5B03
:10E35E0010FF2A12FF3A24FFED473A25FFED4FF149
:10E36E00C97EB7C81A4F131A473EFF02C923CDE420
:10E37E00F4CDF4F4DACBD0CDE4F47EB7C2CBD079C1
:10E38E00B72004ED5B07FFEBCD03F4E521F7F9CDE4
:10E39E00FAF3E17EE5CD08F43E20CD33FCCD5AF400
:10E3AE00CDE4F47EB72007E1232207FF18DAFE2D15
:10E3BE002007E12B2207FF18CFFE2E2007E12207B0
:10E3CE00FFC387D0CDF4F4B7E1CACBD073232207B5
:10E3DE00FFED5B44FF1A3243FFED5B48FF1A3247F5
:10E3EE00FF18A5AF4F3242FF3246FF3226FF23CD34
:10E3FE00E4F4FE4720063226FF231803CDF4F4CDB5
:10E40E00E4F4B7C2CBD079B720031100003E2ECD75
:10E41E0033FCCD25FCFE532878FE3A280DFE0D2840
:10E42E00ECFE0A28E8CD25FC18F3CD1FF44F47CD9E
:10E43E001FF467814FCD1FF46F814F19CD31E4CD9D
:10E44E001FF4320AFF814F78B72814CD1FF4F581DF
:10E45E004F3A0AFFB72005F177231801F110ECCDE2
:10E46E001FF48120143A0AFFB7CAD4E3CD43F43A1D
:10E47E0026FFB7280A2A27FFE921CEF9CDFAF3C3E2
:10E48E0087D03A26FFFE47C02227FF3E013226FFE5
:10E49E00C9CD25FC320AFFCD1FF4474FCD1FF467BF
:10E4AE00814FCD1FF46F814F19CD31E4050505283D
:10E4BE0015CD1FF4F5814F3A0AFFFE312005F17795
:10E4CE00231801F110EBCD1FF481FEFF20123A0A42
:10E4DE00FFFE3728AAFE3828A6FE39288FC3D4E3BC
:10E4EE0021DBF91897237EFE492804FE53200423CE
:10E4FE003209FFCDE4F4CDF4F4B7281CD5DDE1CD1F
:10E50E00E4F47EFE2C201123CDE4F4CDF4F4B728F0
:10E51E0007CDE4F47EB72803C3CBD0DDE5E1EB23D2
:10E52E00B7ED52CDF2E47CB520F93A09FFFE492051
:10E53E000921FAF9CDFAF3C387D02108FACDFAF3FF
:10E54E00C387D00E107CB720057DB930014F060071
:10E55E00B7ED42413A09FFFE4920303E3ACD33FC39
:10E56E0078CD08F4487ACD08F47A814F7BCD08F443
:10E57E007B814FAFCD08F41AF5CD08F4F1814F131E
:10E58E0010F579ED44CD08F4C343F43E53CD33FC7E
:10E59E003E31CD33FC78C6034FCD08F47ACD08F466
:10E5AE007A814F7BCD08F47B814F1AF5CD08F4F1BB
:10E5BE00814F1310F5792FCD08F4C343F423CDE426
:10E5CE00F4B72006CDF2E5C387D0EB21BEFABE2804
:10E5DE000D4F237EB72869790105000918F0237EB7
:10E5EE00FE0F2009234E236669131A18E1B728502F
:10E5FE004E235E2356D5237E23666FCDFAF33E3D22
:10E60E00CD33FC79E607FE012008E17EE5CD08F466
:10E61E00180CE1E5237ECD08F42B7ECD08F43E20C8
:10E62E00CD33FCC5CD5AF4CDE4F4CDF4F4B7280DBA
:10E63E00C1E179FE012003731803732372C387D0DF
:10E64E00C3CBD02115FA5E2356237AB3CA43F4D531
:10E65E00EBCDFAF3EBD13EFABA20073E80BB200297
:10E66E0018293EFABA20053EA7BB281F5E23562363
:10E67E007E23EBFE0120077ECD08F4EB18C8237E27
:10E68E00CD08F42B7ECD08F4EB18BB5E2356231A6F
:10E69E00D5E52163FF016EE61176E6F5F1CB273065
:10E6AE0006F50A77F11804F51A77F1031323F57EB0
:10E6BE00B720E9F12163FFCDFAF3E1D12318875397
:10E6CE005A2E482E504E432E2E2E2E2E2E2E2E49A4
:10E6DE004E4952B9494E4452BB4F555449BD4F5401
:10E6EE004952BE4F555444BF4F544452C048414CFA
:10E6FE0054B352455449AF5245544EB0444A4E5A03
:10E70E00AC43414C4CAD43504452A84C4449528307
:10E71E004C444452855055534888524C43418A527A
:10E72E005243418E43504952A64C4449824C444474
:10E73E008445585887504F5089524C418B524C4308
:10E74E008C5252418F52524390534C4192535241EC
:10E75E009353524C944144449541444396494E43FD
:10E76E009753554298534243994445439A414E44D8
:10E77E009B584F529D43504C9E4E45479F43434698
:10E78E00A0534346A1424954A2534554A352455364
:10E79E00A4435049A5435044A7524554AE52535436
:10E7AE00B14E4F50B2494E49B8494E44BA4F5554E6
:10E7BE00BC444141C1524C44C2525244C34F5247D1
:10E7CE00C4455886524C8D5252914F529C4350A97B
:10E7DE004A50AA4A52AB494DB6494EB74449B44580
:10E7EE0049B54C44814442C54457C600284243298A
:10E7FE009A284445299B28484C299C284958299DEC
:10E80E00284959299E28535029A02843299F41461B
:10E81E002783414682424385444588484C8B49585C
:10E82E008E49598F5350904E5A944E4395504F9750
:10E83E0050459841814284438644874589488A4C95
:10E84E008C498D52915A924D935096002849582BCF
:10E85E00A12849592BA22849582DA42849592DA53C
:10E86E000023CD64F3B72811CDF4F4DACBD0ED53F9
:10E87E004EFFCD64F3B7C2CBD02A4EFF2250FFAF6E
:10E88E003252FF3254FF3255FF3256FF2A50FFCD1F
:10E89E0003F421F7F9CDFAF3216CFFCBCECD5AF468
:10E8AE00E5216CFFCB8EE1CDB4F37EFE1B280DFE71
:10E8BE002E2809B7C2FAE8CD77E818C3CD77E82A33
:10E8CE0050FF224EFFC387D03E0AC333FC2153E1D3
:10E8DE00CD77E8CDFAF321E8F9CDFAF318A13A5441
:10E8EE00FFFE442837FE452838FE46283F3E200EC0
:10E8FE00262177FF77230D20FB3E0D7723AF77CDB3
:10E90E00FAF32A50FF1177FFD5CD04D7E1CDFAF3F4
:10E91E002A50FFCDF2E82250FFC32EE8CD77E8183B
:10E92E00EFCDE8E8CDF2E82202FF1808CDE8E823A3
:10E93E00232202FFCDC8D518D7CD77E82A50FF2263
:10E94E0000FFC93A53FF4FAF4709C9CD3DF2DA7CFC
:10E95E00E83A52FFFE01CAD5EEFE02CA5FEF3A5404
:10E96E00FF010D002125E9EDB1C27CE82132E90954
:10E97E00094E2346C5C901061516192B373C2A2DFB
:10E98E002224235CE97AE998E919EA26EA46EA4F55
:10E99E00EA8FEAC4EACCEA45EBC7EB51ECC0C8D02B
:10E9AE00D8E0E8F0F8C6CED6DEE6EEF6FE214CE96B
:10E9BE00225FFF2154E92261FF183A80889098A0C7
:10E9CE00A8B0B8868E969EA6AEB6BE216AE9225F24
:10E9DE00FF2172E92261FF181C4048505860687090
:10E9EE0078464E565E666E767E2188E9225FFF215E
:10E9FE0090E92261FF3A55FFFE19C27CE82A57FFC3
:10EA0E007CB7C27CE87DFE08D27CE83A56FFFE2138
:10EA1E00282CFE24283AFE22283BFE25283FED4BCB
:10EA2E005FFF09563A56FF2124EC010800EDB1C2F2
:10EA3E007CE879FE0728033E069182C3E9F13A5E2F
:10EA4E00FF5F16DDED4B61FF094B5E3ECBC30CF253
:10EA5E003A5DFF18EC3A5CFF5F16FD18E73A5BFF74
:10EA6E0018F6ECE4F4D4C4FCCCDC1111EA180BEA71
:10EA7E00E2F2D2C2FACADA111EEA215AF0010800F5
:10EA8E003A55FFEDB1C27CE83A56FFFE19C27CE85A
:10EA9E00626B097EC3DDEF11D341ED4B55FF180BB1
:10EAAE0011DB403A55FF473A56FF4F79FE23281F98
:10EABE00FE1FC27CE878FE01280F210EEC01060035
:10EACE00CDB3EADA7CE87A18037AC638C337F22A6D
:10EADE0059FF7CB7C27CE87DF57B1825141215060C
:10EAEE00218BEA01040016203A55FFCDB3EADA7CF9
:10EAFE00E83A56FFFE19C27CE8CD86F3DA7CE8F5DB
:10EB0E007AC3FFEFEDA1280C5F7AC6085779B07B68
:10EB1E0020F237C9C9119F423EDE081806118F4AEE
:10EB2E003ECE083A55FFFE01282AFE0BC27CE83A7B
:10EB3E0056FFFE052819FE082811FE0B2809FE10A7
:10EB4E00C27CE83E3018093E2018053E101801AF71
:10EB5E0082C337F23A56FF2124EC010900EDB120B1
:10EB6E001879FE082810B728057B91C3E8EE2A57BE
:10EB7E00FF0857C3E1EC7B18F2212DEC010400EDE8
:10EB8E00B1C27CE8215BFF0956790EFDFE02380208
:10EB9E000EDD1DC324ED1187093EC6083A56FF4708
:10EBAE003A55FFFE0128ADFE0B2847FE0E2809FE42
:10EBBE000FC27CE80EFD18020EDD78FE052819FE48
:10EBCE00082819FE0E2819FE0FCA99EBFE10C27CFA
:10EBDE00E83E39F579C3FFEF3E0918F73E1918F3F1
:10EBEE0079FEDDC27CE83E2918E979FEFDC27CE89B
:10EBFE0018F478FE052812FE082813FE0B2814FEC2
:10EC0E0010C27CE83E39C31AEB3E09C31AEB3E191B
:10EC1E00C31AEB3E29C31AEB3A56FF473A55FFFE8D
:10EC2E00022826FE08282CFE20C27CE8781EE3FE71
:10EC3E000B2813FE0E16DD2807FE0FC27CE816FD0C
:10EC4E007BF57AC3FFEF7B181278FE03C27CE83E99
:10EC5E0008180878FE0BC27CE83EEBC3E8EE010410
:10EC6E000607090A0C05080B0E0F212422250D108C
:10EC7E00111A1B1C2301040607090A0C1C19212456
:10EC8E0022251A1B0D11236860585048407899ECC4
:10EC9E00AAECAFECB3ECB8ECBDECCBECD0ECD8EC12
:10ECAE00DDEC3A55FF210DEC010700EDB1C2EFECA2
:10ECBE002136EC09563A56FF2124EC010800EDB13D
:10ECCE00200C79FE0728033E0691B2C3E8EE212CF4
:10ECDE00EC010A00EDB1C27CE879FE0530067AFE41
:10ECEE0078C27CE8213DECC31EE93E3A2A50FF77FC
:10ECFE0023ED5B59FF732372C3E9EF3E5FC337F217
:10ED0E003E5718F93E1AC3E8EE3E0AC3E8EE3A5BE8
:10ED1E00FF4F1EFD3E06B2577BC3F4F03A5CFF1860
:10ED2E00F03A5DFF4F1EDD18EB3A5EFF18F67AD60D
:10ED3E003A572A57FF7CB7C27CE87DF57AC3FFEFBE
:10ED4E00010500EDB1207479B7286CFE01284EFE46
:10ED5E00022835FE03282916ED1E4B0E013A56FFEA
:10ED6E00FE19280A7B2159FF4E235EC30CF2215750
:10ED7E00FF5E2356792A50FF7123732372C3E9EF86
:10ED8E0016ED1E5B0E1118D50E21ED5B57FF3A5690
:10ED9E00FFFE1928E00E2AED5B59FF18D816DD0E7E
:10EDAE00212157FF3A56FFFE1928050E2A2159FF39
:10EDBE00794E235EC30CF216FD18E4010400EDB18A
:10EDCE00203F215BFF0956791EFDFE0238021EDD33
:10EDDE003A56FFFE19281A210DEC010700EDB1C2BB
:10EDEE007CE879FE063E7728033E75914B5FC3247F
:10EDFE00ED2A57FF7CB7C27CE83E364A535DC30C02
:10EE0E00F2010700EDB1C27CE821BEEDC31EE9DAC6
:10EE1E00ED0FEE7CEE80EE85EE3EEE8AEE010B05FA
:10EE2E0008100E0F222273534322323A56FF21CC82
:10EE3E00ED010700EDB1C27CE821D3ED09794E2A30
:10EE4E0059FFFE0538055D54C324EDFE0238081641
:10EE5E00ED794D5CC30CF216FDB728F516DD18F1F1
:10EE6E003A56FFFE192819FE012811210EEC010653
:10EE7E0000EDB1C27CE83E7591C3E8EE3E7718F91D
:10EE8E002A57FF7CB7C27CE87DF53E36C3FFEF3ACA
:10EE9E0056FFFE0B281DFE0E281DFE0F281DFE1907
:10EEAE002822FE23C27CE816ED3E7B2A59FF4D5CDC
:10EEBE00C30CF23EF9181C16DD180216FD3EF9F5CC
:10EECE007AC3FFEF0E31ED5B57FFC324ED3E1218F0
:10EEDE00023E02C3E8EE3E4FC337F23E47C337F25F
:10EEEE00070A0B0E0F1E20212E323334354127FB1D
:10EEFE00F37600C9373F2F1F0F1707D9272825266E
:10EF0E003A3B3839040502031F403E3F3D2F304245
:10EF1E0043676F454DA3ABB3BB44B0A0B8A8B2A234
:10EF2E00BAAAB1A1B9A93A54FF010E00218FEEED94
:10EF3E00B1C2F4EE219DEE097E2A50FF773E0132DA
:10EF4E0053FFC38DE801150021ABEEEDB1C27CE895
:10EF5E002A50FF3EED7723EB21C0EE097E123E02D2
:10EF6E0018DD0809171A181B1C1D292A2E312B2CE7
:10EF7E002D0C100D111213143644454673EF88EF05
:10EF8E00C1EF1BF2B5F1BAF1BFF1C4F1C9F1CEF187
:10EF9E00D3F1D3EFEEEF09F01CF046F06AF0A4F0D7
:10EFAE00A8F0ACF0B0F0B4F036F13BF17DF181F1A8
:10EFBE003A54FF011A002111EFEDB1C27CE8212B6A
:10EFCE00EFC31EE93A55FFFE19C27CE82A50FFED49
:10EFDE004B57FF712370C30DEF3A55FFFE192820D2
:10EFEE00FE26C27CE82A57FFAF4FED5B50FF7EFE38
:10EFFE00222809B728061223130C18F279C3EEEE55
:10F00E00ED4B57FF78B7C27CE82A50FF713E01C323
:10F01E00EEEE3A55FFFE19C27CE82A57FF2250FF4A
:10F02E00AFC3EEEE3A55FFFE19C27CE83ECD2A5034
:10F03E00FF7723ED5B57FF7323723E03C3EEEE3A69
:10F04E0055FFFE19C27CE8CD86F3DA7CE8F53E105A
:10F05E002A50FF7723F177C30DEF3A55FFFE19C201
:10F06E007CE8CD86F3DA7CE8F53E1818E32A57FFE4
:10F07E007CB7C27CE87D2136F0010800EDB1C27C80
:10F08E00E8213EF0C3E6EE0008101820283038FFC5
:10F09E00F7EFE7DFD7CFC73A55FF215AF001080047
:10F0AE00EDB1C27CE82162F0C3E6EE061213141530
:10F0BE00161718E8E0F0D0C0F8C8D83A55FFFE1978
:10F0CE0028212EE9FE1C2817FE1D280CFE1EC27CD0
:10F0DE00E87DF53EFDC3FFEF7DF53EDDC3FFEF7D21
:10F0EE00C3E8EE3EC3C3DDEF06060606460605047C
:10F0FE00030201000716B8180E16A8180A16B01843
:10F10E000616A0180216903A55FF2124EC010D00A8
:10F11E00EDB1C27CE82197F0097EB25779FE05DA8F
:10F12E00D5F07AC3E8EEFE04380E2A57FF7CB7C23C
:10F13E007CE87DF57AC3FFEFFE023EFD38023EDD30
:10F14E00215BFF094E2A50FF777A23772371C3E99B
:10F15E00EF010405060708090A0B0C101C0E0F21FF
:10F16E00242225353535352B2B353B2D2B251D1BD7
:10F17E00150D0B053D34343434232334332C232422
:10F18E001C13140C03043C1112F118031124F13A50
:10F19E0055FF2100F1011200EDB1626BC27CE879DE
:10F1AE0016FDFE06D2E6EE097E5F79FE04380828CB
:10F1BE000216DD7BC3E2F0FE02380216DD7A53C37F
:10F1CE00EFF00205080B0E0FE0E0E0D0C0F01601E4
:10F1DE00180216052171F10106003A55FFEDB1C274
:10F1EE007CE82177F1097EB25779FE027AD2E8EEF9
:10F1FE001EFD79B728021EDD7AF57BC3FFEF0605EB
:10F20E00040302010007113E38181C112E2818178E
:10F21E001126201812111E18180D1116101808118B
:10F22E000E0818031106003A55FF2124EC010800C0
:10F23E00EDB1200C21ADF1097EB2F53ECBC3FFEF4F
:10F24E00212DEC010400EDB1C27CE816FD79FE0221
:10F25E00380216DD215BFF094E23463ECB2A50FFB6
:10F26E00722377237123733E04C3EEEE3A58FFB731
:10F27E00C27CE83A57FFFE03D27CE80E46B7280759
:10F28E000E563D28020E5E79F53EEDC3FFEFCD0022
:10F29E00F3D83254FFCD77F27EB7C8FE20C275F296
:10F2AE00CD7FF2D83255FF08CD77F208FE26C87E04
:10F2BE00B7C8FE2C2010CD7FF2D83256FFCD77F294
:10F2CE007EB72002C9F137C93A52FF3C3252FFC90C
:10F2DE0023CDF6F2D0CDFBF23840F5CD29F3DA741A
:10F2EE00F27AB720E07EFE2920DB23F1F5FE212005
:10F2FE0005015EFF1807FE22200B015CFF7BFE80DE
:10F30E0030C302F1C9FE24200C015DFF7BFE81306B
:10F31E00B4ED4418ED015BFF18F27EFE2820122397
:10F32E00CD29F3D87EFE29209D23ED5359FF3E2390
:10F33E00C9FE222007232257FF3E26C9CD29F3D826
:10F34E00ED5357FF3E19C9119BE7180B11FBE71838
:10F35E00062177FF117EE6E51ABE2004231318F866
:10F36E00E680200E131AE68028FA131AB72808E151
:10F37E0018E51AE67FD1C9E137C9119AFF0E00CD03
:10F38E006BF3D81213230CCD75F3380B1213230C19
:10F39E0079FE07282F18F008AF1208FE48280BE553
:10F3AE00219AFFCDDBD0E15059C923E5219AFFCD3B
:10F3BE00F4F4E1B7C97EFE20C02318F97EFE3A3080
:10F3CE0003FE30D037C97EFE30D8FE3A3807FE41F4
:10F3DE00D8FE4730EFB7C9E5D5ED5B50FF13132AC2
:10F3EE0057FFAFED52380D7CB720177DFE803012DF
:10F3FE00B7D1E1C97CFEFF20097DED44FE817D3F42
:10F40E0018EF3718ECE5D5C52177FF545D0E20CDEA
:10F41E0064F3CDD9F3B7280E0E0023CD64F3B728CD
:10F42E0003CDD9F31B12C1D1E1C906001213B7C81F
:10F43E00B9C8FE2220060878EE014708237EB928B7
:10F44E00EBCB4020E7FE2028E918E17EA7C8CD339C
:10F45E00FC2318F77CCD08F47DF51F1F1F1FCD115F
:10F46E00F4F1E60FC630FE3ADA33FCC607C333FCBE
:10F47E00AFCD27F407070707C54FCD25FCFE303863
:10F48E0011FE3A380AFE413809FE473005D607D636
:10F49E0030B1C1C93E0DCD33FC3E0AC333FCE5216C
:10F4AE0056F4CDFAF3E1C91B5B32002177FF062833
:10F4BE00D5E5581D0600CD25FCFE0D285AFE0A285E
:10F4CE0056FE08283BFE7F2837FE22200AF53A6CAE
:10F4DE00FFEE04326CFFF1FE2038DBFE8030D74F9A
:10F4EE0078BB30D20479CD33FCFE61380FFE7B3011
:10F4FE000BE5216CFFCB562002E6DFE1772318B631
:10F50E0078A728B2052B3E08CD33FC3E20CD33FC28
:10F51E003E08CD33FC189FE5216CFFCB4620053EFF
:10F52E000DCD33FCCB4E20053E0ACD33FCCB96E100
:10F53E003600E1D1C97EFE20C02318F9FE61D8FE47
:10F54E007BD0C6E0C90E001100007EFE30382CFEC6
:10F55E003A380AFE413824FE473020D607D63017F7
:10F56E0017171717CB13CB1217CB13CB1217CB13AF
:10F57E00CB1217CB13CB12230C18CF79B72806FE5C
:10F58E00053002B7C937C9E5C52153F5060009098B
:10F59E00017FF5B7E5ED42E1300746236668C1E32A
:10F5AE00C9C1E1C903D07FF533FCFAF325FC2EFC6B
:10F5BE00C1F503F408F411F44DF45FF4E4F443F4EC
:10F5CE00EBF4F4F4F8F62EF7A4F74FF504D7DBD0EE
:10F5DE003100FF3A4AFFB72806214BFFCDB0F63A6D
:10F5EE003AFFB72806213BFFCDB0F63A3EFFB728CB
:10F5FE0006213FFFCDB0F63A46FFB728062147FF5A
:10F60E00CDBCF63A42FFB728062143FFCDBCF6C368
:10F61E0086F6AFC9F5ED5F3225FFED573224FF2296
:10F62E0012FFED5310FFED430EFFE1220CFF08F524
:10F63E00D9221AFFED5318FFED4316FFE12214FFF6
:10F64E00DD221CFFFD221EFFE12B2222FFED732087
:10F65E00FF3100FFAF575F3A4AFFB7280911E6F6B0
:10F66E00214BFFCDB0F63A46FFB7280911E6F62139
:10F67E0047FFCDBCF63A42FFB7280911E6F6214303
:10F68E00FFCDBCF63A3AFFB7280911EFF6213BFF42
:10F69E00CDB0F63A3EFFB7280911EFF6213FFFCD68
:10F6AE00B0F67AB3200311DCF61AFE54280CEBCD1B
:10F6BE00FAF3CDF2E5CDC3F6181D3A33FFFE462818
:10F6CE000AEBCDFAF3CDF2E5CDC3F6CD2EFC281321
:10F6DE00CD25FCFE03200CAF3239FF676F2235FFBC
:10F6EE00C387D03A39FFB7C2A7F62A35FF2B22358A
:10F6FE00FF7DB42003C387D02A22FF2237FFC3FC2D
:10F70E00D2E57E234E234602E1AF2B77C97E234EF0
:10F71E00234602C92A22FF2270FFCD5AD7CD1FD70A
:10F72E002177FFCDFAF32A22FF2270FFC9525354DC
:10F73E00203338480D0A00427265616B210D0A00B4
:10F74E005472616365210D0A00F5C5D5E5DDE5E569
:10F75E00DDE1EBE521050019AF77EBE10101003E9C
:10F76E000ACD2EF7F6301B120C7CB520F279FE0670
:10F77E002806DDE5E1EBEDB0DDE1E1D1C1F1C9C572
:10F78E00D54F060FAF291791380D292C1791380C2C
:10F79E00292C10F8C34FF729178138F42910F98155
:10F7AE00D1C1C92229FFED532BFFAF322DFF322ECF
:10F7BE00FF322FFF3230FF0610212DFFCB2623CB39
:10F7CE00162129FFCB2623CB16212FFFCB1623CBB9
:10F7DE00162A2BFF5D542A2FFFAFED523002180B65
:10F7EE00222FFF3A2DFFF601322DFF10CC2A2DFFCE
:10F7FE00ED5B2FFFC9F5C5B71804CB21CB101F3019
:10F80E00F90920F6C1F1C93F203A436F6D6D616E63
:10F81E00642048656C700D0A415B3C6164647265DE
:10F82E0073733E5D203A204D696E69204173736596
:10F83E006D626C65206D6F64650D0A425B317C32C2
:10F84E005B2C3C6164723E5D5D203A536574206FA3
:10F85E0072204C69737420427265616B20506F691F
:10F86E006E740D0A42435B317C325D203A436C6507
:10F87E00617220427265616B20506F696E740D0A61
:10F88E00445B3C6164723E5D203A44756D70204D60
:10F89E00656D6F72790D0A44495B3C6164723E5D21
:10F8AE005B2C733C73746570733E7C3C6164723E7A
:10F8BE005D203A446973617373656D626C650D0A00
:10F8CE00475B3C6164723E5D5B2C3C73746F7020D1
:10F8DE006164723E5D203A476F20616E64205374FE
:10F8EE006F700D0A4C5B477C3C6F66667365743EA9
:10F8FE005D203A4C6F61642048657846696C6520DE
:10F90E0028616E6420474F290D0A505B497C535D78
:10F91E00203A536176652048657846696C652849BA
:10F92E003A496E74656C2C533A4D6F746F726F6CEE
:10F93E0061290D0A525B3C7265673E5D203A536544
:10F94E0074206F722044756D7020726567697374D0
:10F95E0065720D0A535B3C6164723E5D203A5365DD
:10F96E0074204D656D6F72790D0A545B3C61647243
:10F97E003E5D5B2C3C73746570733E7C2D315D2057
:10F98E003A20547261636520636F6D6D616E640D14
:10F99E000A544D5B497C535D203A54726163652075
:10F9AE004F7074696F6E20666F722043414C4C0D20
:10F9BE000A54505B4F4E7C4F46465D203A5472615E
:10F9CE006365205072696E74204D6F64650D0A0078
:10F9DE000D0A454D555A3830204D4F4E49544F5211
:10F9EE00205265762E42303420666F722053757029
:10F9FE0065724D455A38300D0A54686973206D6F23
:10FA0E006E69746F72206973206261736564206F12
:10FA1E006E20756E696D6F6E2E0D0A005D200045AD
:10FA2E0072726F7220696865780D0A004572726F86
:10FA3E007220737265630D0A004572726F720D0A41
:10FA4E0000203A00207C20002020003A3030303058
:10FA5E003030303146460D0A0053393033303030B5
:10FA6E003046430D0A006AFA0DFF016EFA0EFF02D0
:10FA7E0074FA10FF027AFA12FF0280FA0CFF018567
:10FA8E00FA1CFF028AFA1EFF028FFA15FF0195FA81
:10FA9E0016FF029BFA18FF02A1FA1AFF02A7FA1428
:10FAAE00FF01ACFA20FF02B1FA22FF02B6FA24FFE0
:10FABE0001BAFA25FF01000000000041203D0020A0
:10FACE004243203D00204445203D0020484C203D2F
:10FADE00002046203D002049583D002049593D0058
:10FAEE000D0A41273D00204243273D002044452773
:10FAFE003D0020484C273D002046273D0020535016
:10FB0E003D002050433D0020493D0020523D004124
:10FB1E000F08FB0000420F16FB0000430F38FB00DE
:10FB2E0000440F46FB0000450F68FB0000460F76B1
:10FB3E00FB0000480F84FB0000490FB4FB00004C93
:10FB4E000FA6FB0000500FC8FB0000520125FF233B
:10FB5E00FC530FD0FB0000000000010DFFD8FB2767
:10FB6E000115FFF1FB000000010FFFDDFB27011760
:10FB7E00FFF8FB430F2AFB0000000000020EFFDA25
:10FB8E00FB270216FFF4FB000000010EFFDFFB2730
:10FB9E000116FFFBFB0000000111FFE4FB2701191A
:10FBAE00FF02FC450F5AFB00000000000210FFE1AF
:10FBBE00FB270218FFFEFB0000000110FFE6FB27EB
:10FBCE000118FF05FC000000010CFFEFFB270114DC
:10FBDE00FF12FC0000000113FFEBFB27011BFF0CC3
:10FBEE00FC4C0F98FB00000000000212FFE8FB2700
:10FBFE00021AFF08FC0000000112FFEDFB27011A9C
:10FC0E00FF0FFC0000000124FF21FC58021CFF1511
:10FC1E00FC59021EFF18FC0000430222FF1EFC00CE
:10FC2E0000500220FF1BFC00004100424300420036
:10FC3E00430044450044004500484C0048004C0039
:10FC4E004600412700424327004227004327004435
:10FC5E00452700442700452700484C270048270029
:10FC6E004C27004627004958004959005350005070
:10FC7E00430049005200DB01CB4728FADB00C9DB09
:10FC8E0001CB47C9F5DB01CB4F28FAF1D300C9FFF1
:10FC9E00FFFFFFFFFFFFFFFFFFFFFFFFFFFFFFFF66
:10FCAE00FFFFFFFFFFFFFFFFFFFFFFFFFFFFFFFF56
:10FCBE00FFFFFFFFFFFFFFFFFFFFFFFFFFFFFFFF46
:10FCCE00FFFFFFFFFFFFFFFFFFFFFFFFFFFFFFFF36
:10FCDE00FFFFFFFFFFFFFFFFFFFFFFFFFFFFFFFF26
:10FCEE00FFFFFFFFFFFFFFFFFFFFFFFFFFFFFFFF16
:10FCFE00FFFFFFFFFFFFFFFFFFFFFFFFFFFFFFFF06
:10FD0E00FFFFFFFFFFFFFFFFFFFFFFFFFFFFFFFFF5
:10FD1E00FFFFFFFFFFFFFFFFFFFFFFFFFFFFFFFFE5
:10FD2E00FFFFFFFFFFFFFFFFFFFFFFFFFFFFFFFFD5
:10FD3E00FFFFFFFFFFFFFFFFFFFFFFFFFFFFFFFFC5
:10FD4E00FFFFFFFFFFFFFFFFFFFFFFFFFFFFFFFFB5
:10FD5E00FF00000000000000000000000000000096
:10FD6E000000000000000000000000000000000085
:10FD7E000000000000000000000000000000000075
:10FD8E000000000000000000000000000000000065
:10FD9E000000000000000000000000000000000055
:01FFFE000002
:020000040001F9
:10000000080E0001B16F04012093C292CA922091A0
:10001000C290CA90000E186F000EC16E000EC96E1D
:100020002095C294CA94000E086F000EBF6E000E99
:10003000C76E000E106F000EC06E000EC86E3F0E31
:100040000201046F04010097C696BC0E436F000EB8
:10005000446F050E456F000E476F4691468B468FE5
:100060000095BE84C6940099BE88C698000E020111
:10007000D56F220ED46F810ED36F000E0F6E110E4E
:10008000196E000E0A6E000E096E09C50BF50AC541
:100090000CF50BC50DF50CC50EF5000E046E000E2B
:1000A000036E03C505F504C506F505C507F506C5C8
:1000B00008F5D189D18B0401009FC68E070E02017D
:1000C000766F0401009DBE8CC69C260E0201076F50
:1000D000D28F000E036F000E186E000E176E17C53C
:1000E00001F518C502F502C5C1F401C5BFF4BE94FF
:1000F000FF0E1724F66ECF0E1820F76E0800F5C419
:10010000C0F4BE84174A182A400E185CD8A0E7D75E
:10011000C294000E0401186F1969C96820952185E1
:10012000CA84000E086F0969C768000E106F116954
:10013000C86800910181C68000930183C682009B3C
:10014000018BC68A189D198DC98C189FC18EC99EB6
:10015000010E0201616F000E626F1E0E636F050ECD
:10016000656F010E056F020E036F030E206F000E08
:100170000001D56F000ED86F020ED96F040EDA6F32
:100180007F0EDB6F010EDC6F080EDD6F100EDE6F71
:10019000400EDF6F800ED76F820ED66F010ED56FC7
:1001A000000ED86F020ED96F040EDA6F7F0EDB6F70
:1001B000010EDC6F080EDD6F200EDE6F400EDF6F6C
:1001C000800ED76F820ED66F020ED56F010ED86FDC
:1001D0007F0ED96F7F0EDA6F7F0EDB6F010EDC6F43
:1001E000000EDD6F000EDE6F000EDF6F820ED76F28
:1001F0008C0ED66F000ED46F550E0401596FAA0EE7
:10020000596F5991080E5D6F000E5E6F000E5F6FA3
:10021000550E596FAA0E596F5981B59AA58AB7A282
:10022000FED7110E0201C96FA780D68EC280C2828E
:02023000FFD7F6
:10023400CFC401F5CEAA23D00150D8A41BD00450BA
:1002440019E1800E035CD8B015D0600E0724D96E76
:10025400050E0820DA6ED0C4DFF4010E0724106EF8
:10026400000E0820116E7F0E1014076E086A034AF0
:10027400042AA7820001D785D795B59A1100000EEC
:10028400C86E0104D8A415D009500A10D8B403D0FC
:10029400106A102A01D0106A800E03180410D8B412
:1002A40003D0116A112A01D0116AD89011341010A8
:1002B40008D00150D8A42BD009500A10D8A403D0D8
:1002C400000EC06E25D0000E0B24D96E060E0C2035
:1002D400DA6EDF50C06E010E0B24106E000E0C207F
:1002E400116E7F0E10140B6E0C6A0906D8A00A0654
:1002F400130E1918D8A40CD00A0E09180A10D8A481
:1003040007D0110E196E19C50FF5A78201D0C06868
:100314000001D785D795D1AEFED7C868B59A11002C
:10032400C7C216F50A5026E1800E095CD8B0110048
:10033400000E0D24D96E060E0E20DA6E16C5DFF4FB
:10034400010E0D24146E000E0E20156E7F0E141473
:100354000D6E0E6A094A0A2A110E1918D8A4110042
:10036400400E09180A10D8A41100130E196E19C5ED
:060374000FF5A782110045
:10037C000F50D8B40AD00FC5C9F2000E0F6E03503F
:10038C000410D8A41100A792110003500410D8B483
:10039C00FAD7600E0524D96E050E0620DA6EDF50F2
:1003AC000201C96F010E0524126E000E0620136E99
:1003BC007F0E1214056E066A0306D8A004061100FF
:1003CC0001EE00F2800EEE6AE806FDE101EE60F14E
:1003DC00800EEE6AE806FDE101EE01F10F0EEE6A09
:1003EC00E806FDE10401080E5D6F000E5E6F000E65
:0E03FC005F6F000EF86E000100EF80F0110040
:020000040020DA
:10000000FF0FFF0FFF0FFF0FFF0FFF0FFF0FFF0F80
:10001000FF0FFF0FFF0FFF0FFF0FFF0FFF0FFF0F70
:10002000FF0FFF0FFF0FFF0FFF0FFF0FFF0FFF0F60
:10003000FF0FFF0FFF0FFF0FFF0FFF0FFF0FFF0F50
:020000040030CA
:100000008C2FFFF79FFFFFFFFFFFFFFFFFFFFFFFAB
:10001000FFFFFFFFFFFFFFFFFFFFFFFFFFFFFFFFF0
:03002000FFFFFFE0
:00000001FF
